{
    "_format": "hh-sol-artifact-1",
    "contractName": "BenzToken",
    "sourceName": "contracts/MercyBxNFT.sol",
    "abi": [
        {
            "inputs": [
                {
                    "internalType": "uint256",
                    "name": "_cost",
                    "type": "uint256"
                },
                {
                    "internalType": "uint256",
                    "name": "_validityPeriodInDays",
                    "type": "uint256"
                }
            ],
            "stateMutability": "nonpayable",
            "type": "constructor"
        },
        {
            "anonymous": false,
            "inputs": [
                {
                    "indexed": true,
                    "internalType": "address",
                    "name": "userAddress",
                    "type": "address"
                }
            ],
            "name": "AddressLogged",
            "type": "event"
        },
        {
            "anonymous": false,
            "inputs": [
                {
                    "indexed": true,
                    "internalType": "address",
                    "name": "owner",
                    "type": "address"
                },
                {
                    "indexed": true,
                    "internalType": "address",
                    "name": "approved",
                    "type": "address"
                },
                {
                    "indexed": true,
                    "internalType": "uint256",
                    "name": "tokenId",
                    "type": "uint256"
                }
            ],
            "name": "Approval",
            "type": "event"
        },
        {
            "anonymous": false,
            "inputs": [
                {
                    "indexed": true,
                    "internalType": "address",
                    "name": "owner",
                    "type": "address"
                },
                {
                    "indexed": true,
                    "internalType": "address",
                    "name": "operator",
                    "type": "address"
                },
                {
                    "indexed": false,
                    "internalType": "bool",
                    "name": "approved",
                    "type": "bool"
                }
            ],
            "name": "ApprovalForAll",
            "type": "event"
        },
        {
            "anonymous": false,
            "inputs": [
                {
                    "indexed": false,
                    "internalType": "uint256",
                    "name": "_fromTokenId",
                    "type": "uint256"
                },
                {
                    "indexed": false,
                    "internalType": "uint256",
                    "name": "_toTokenId",
                    "type": "uint256"
                }
            ],
            "name": "BatchMetadataUpdate",
            "type": "event"
        },
        {
            "anonymous": false,
            "inputs": [
                {
                    "indexed": false,
                    "internalType": "string",
                    "name": "message",
                    "type": "string"
                }
            ],
            "name": "LogMessage",
            "type": "event"
        },
        {
            "anonymous": false,
            "inputs": [
                {
                    "indexed": false,
                    "internalType": "uint256",
                    "name": "id",
                    "type": "uint256"
                },
                {
                    "indexed": false,
                    "internalType": "string",
                    "name": "value",
                    "type": "string"
                }
            ],
            "name": "LogObject",
            "type": "event"
        },
        {
            "anonymous": false,
            "inputs": [
                {
                    "indexed": false,
                    "internalType": "uint256",
                    "name": "value",
                    "type": "uint256"
                }
            ],
            "name": "LogValue",
            "type": "event"
        },
        {
            "anonymous": false,
            "inputs": [
                {
                    "indexed": false,
                    "internalType": "uint256",
                    "name": "_tokenId",
                    "type": "uint256"
                }
            ],
            "name": "MetadataUpdate",
            "type": "event"
        },
        {
            "anonymous": false,
            "inputs": [
                {
                    "indexed": true,
                    "internalType": "address",
                    "name": "previousOwner",
                    "type": "address"
                },
                {
                    "indexed": true,
                    "internalType": "address",
                    "name": "newOwner",
                    "type": "address"
                }
            ],
            "name": "OwnershipTransferred",
            "type": "event"
        },
        {
            "anonymous": false,
            "inputs": [
                {
                    "indexed": true,
                    "internalType": "address",
                    "name": "from",
                    "type": "address"
                },
                {
                    "indexed": true,
                    "internalType": "address",
                    "name": "to",
                    "type": "address"
                },
                {
                    "indexed": true,
                    "internalType": "uint256",
                    "name": "tokenId",
                    "type": "uint256"
                }
            ],
            "name": "Transfer",
            "type": "event"
        },
        {
            "inputs": [],
            "name": "MAX_SUPPLY",
            "outputs": [
                {
                    "internalType": "uint256",
                    "name": "",
                    "type": "uint256"
                }
            ],
            "stateMutability": "view",
            "type": "function"
        },
        {
            "inputs": [
                {
                    "internalType": "address",
                    "name": "to",
                    "type": "address"
                },
                {
                    "internalType": "uint256",
                    "name": "tokenId",
                    "type": "uint256"
                }
            ],
            "name": "approve",
            "outputs": [],
            "stateMutability": "nonpayable",
            "type": "function"
        },
        {
            "inputs": [
                {
                    "internalType": "address",
                    "name": "owner",
                    "type": "address"
                }
            ],
            "name": "balanceOf",
            "outputs": [
                {
                    "internalType": "uint256",
                    "name": "",
                    "type": "uint256"
                }
            ],
            "stateMutability": "view",
            "type": "function"
        },
        {
            "inputs": [],
            "name": "cost",
            "outputs": [
                {
                    "internalType": "uint256",
                    "name": "",
                    "type": "uint256"
                }
            ],
            "stateMutability": "view",
            "type": "function"
        },
        {
            "inputs": [
                {
                    "internalType": "uint256",
                    "name": "tokenId",
                    "type": "uint256"
                }
            ],
            "name": "getApproved",
            "outputs": [
                {
                    "internalType": "address",
                    "name": "",
                    "type": "address"
                }
            ],
            "stateMutability": "view",
            "type": "function"
        },
        {
            "inputs": [
                {
                    "internalType": "address",
                    "name": "wallet",
                    "type": "address"
                }
            ],
            "name": "getOwnedTokens",
            "outputs": [
                {
                    "internalType": "uint256[]",
                    "name": "",
                    "type": "uint256[]"
                }
            ],
            "stateMutability": "view",
            "type": "function"
        },
        {
            "inputs": [],
            "name": "getValidityPeriod",
            "outputs": [
                {
                    "internalType": "uint256",
                    "name": "",
                    "type": "uint256"
                }
            ],
            "stateMutability": "view",
            "type": "function"
        },
        {
            "inputs": [
                {
                    "internalType": "address",
                    "name": "owner",
                    "type": "address"
                },
                {
                    "internalType": "address",
                    "name": "operator",
                    "type": "address"
                }
            ],
            "name": "isApprovedForAll",
            "outputs": [
                {
                    "internalType": "bool",
                    "name": "",
                    "type": "bool"
                }
            ],
            "stateMutability": "view",
            "type": "function"
        },
        {
            "inputs": [
                {
                    "internalType": "string",
                    "name": "uri",
                    "type": "string"
                }
            ],
            "name": "isContentOwned",
            "outputs": [
                {
                    "internalType": "bool",
                    "name": "",
                    "type": "bool"
                }
            ],
            "stateMutability": "view",
            "type": "function"
        },
        {
            "inputs": [],
            "name": "mintStartDate",
            "outputs": [
                {
                    "internalType": "uint256",
                    "name": "",
                    "type": "uint256"
                }
            ],
            "stateMutability": "view",
            "type": "function"
        },
        {
            "inputs": [],
            "name": "name",
            "outputs": [
                {
                    "internalType": "string",
                    "name": "",
                    "type": "string"
                }
            ],
            "stateMutability": "view",
            "type": "function"
        },
        {
            "inputs": [],
            "name": "owner",
            "outputs": [
                {
                    "internalType": "address",
                    "name": "",
                    "type": "address"
                }
            ],
            "stateMutability": "view",
            "type": "function"
        },
        {
            "inputs": [
                {
                    "internalType": "uint256",
                    "name": "tokenId",
                    "type": "uint256"
                }
            ],
            "name": "ownerOf",
            "outputs": [
                {
                    "internalType": "address",
                    "name": "",
                    "type": "address"
                }
            ],
            "stateMutability": "view",
            "type": "function"
        },
        {
            "inputs": [
                {
                    "internalType": "address",
                    "name": "recipient",
                    "type": "address"
                },
                {
                    "internalType": "string",
                    "name": "metadataURI",
                    "type": "string"
                }
            ],
            "name": "payToMint",
            "outputs": [
                {
                    "internalType": "uint256",
                    "name": "",
                    "type": "uint256"
                }
            ],
            "stateMutability": "payable",
            "type": "function"
        },
        {
            "inputs": [],
            "name": "renounceOwnership",
            "outputs": [],
            "stateMutability": "nonpayable",
            "type": "function"
        },
        {
            "inputs": [
                {
                    "internalType": "address",
                    "name": "to",
                    "type": "address"
                },
                {
                    "internalType": "string",
                    "name": "uri",
                    "type": "string"
                }
            ],
            "name": "safeMint",
            "outputs": [],
            "stateMutability": "nonpayable",
            "type": "function"
        },
        {
            "inputs": [
                {
                    "internalType": "address",
                    "name": "from",
                    "type": "address"
                },
                {
                    "internalType": "address",
                    "name": "to",
                    "type": "address"
                },
                {
                    "internalType": "uint256",
                    "name": "tokenId",
                    "type": "uint256"
                }
            ],
            "name": "safeTransferFrom",
            "outputs": [],
            "stateMutability": "nonpayable",
            "type": "function"
        },
        {
            "inputs": [
                {
                    "internalType": "address",
                    "name": "from",
                    "type": "address"
                },
                {
                    "internalType": "address",
                    "name": "to",
                    "type": "address"
                },
                {
                    "internalType": "uint256",
                    "name": "tokenId",
                    "type": "uint256"
                },
                {
                    "internalType": "bytes",
                    "name": "data",
                    "type": "bytes"
                }
            ],
            "name": "safeTransferFrom",
            "outputs": [],
            "stateMutability": "nonpayable",
            "type": "function"
        },
        {
            "inputs": [
                {
                    "internalType": "address",
                    "name": "operator",
                    "type": "address"
                },
                {
                    "internalType": "bool",
                    "name": "approved",
                    "type": "bool"
                }
            ],
            "name": "setApprovalForAll",
            "outputs": [],
            "stateMutability": "nonpayable",
            "type": "function"
        },
        {
            "inputs": [
                {
                    "internalType": "bytes4",
                    "name": "interfaceId",
                    "type": "bytes4"
                }
            ],
            "name": "supportsInterface",
            "outputs": [
                {
                    "internalType": "bool",
                    "name": "",
                    "type": "bool"
                }
            ],
            "stateMutability": "view",
            "type": "function"
        },
        {
            "inputs": [],
            "name": "symbol",
            "outputs": [
                {
                    "internalType": "string",
                    "name": "",
                    "type": "string"
                }
            ],
            "stateMutability": "view",
            "type": "function"
        },
        {
            "inputs": [
                {
                    "internalType": "uint256",
                    "name": "tokenId",
                    "type": "uint256"
                }
            ],
            "name": "tokenURI",
            "outputs": [
                {
                    "internalType": "string",
                    "name": "",
                    "type": "string"
                }
            ],
            "stateMutability": "view",
            "type": "function"
        },
        {
            "inputs": [],
            "name": "totalSupply",
            "outputs": [
                {
                    "internalType": "uint256",
                    "name": "",
                    "type": "uint256"
                }
            ],
            "stateMutability": "view",
            "type": "function"
        },
        {
            "inputs": [
                {
                    "internalType": "address",
                    "name": "from",
                    "type": "address"
                },
                {
                    "internalType": "address",
                    "name": "to",
                    "type": "address"
                },
                {
                    "internalType": "uint256",
                    "name": "tokenId",
                    "type": "uint256"
                }
            ],
            "name": "transferFrom",
            "outputs": [],
            "stateMutability": "nonpayable",
            "type": "function"
        },
        {
            "inputs": [
                {
                    "internalType": "address",
                    "name": "newOwner",
                    "type": "address"
                }
            ],
            "name": "transferOwnership",
            "outputs": [],
            "stateMutability": "nonpayable",
            "type": "function"
        },
        {
            "inputs": [],
            "name": "validityPeriodInDays",
            "outputs": [
                {
                    "internalType": "uint256",
                    "name": "",
                    "type": "uint256"
                }
            ],
            "stateMutability": "view",
            "type": "function"
        }
    ],
    "bytecode": "0x60806040523480156200001157600080fd5b5060405162004175380380620041758339818101604052810190620000379190620002d2565b6040518060400160405280600981526020017f42656e7a546f6b656e00000000000000000000000000000000000000000000008152506040518060400160405280600581526020017f424e5a544b0000000000000000000000000000000000000000000000000000008152508160009080519060200190620000bb929190620001e2565b508060019080519060200190620000d4929190620001e2565b505050620000f7620000eb6200011460201b60201c565b6200011c60201b60201c565b42600d8190555081600c8190555080600e8190555050506200037e565b600033905090565b6000600760009054906101000a900473ffffffffffffffffffffffffffffffffffffffff16905081600760006101000a81548173ffffffffffffffffffffffffffffffffffffffff021916908373ffffffffffffffffffffffffffffffffffffffff1602179055508173ffffffffffffffffffffffffffffffffffffffff168173ffffffffffffffffffffffffffffffffffffffff167f8be0079c531659141344cd1fd0a4f28419497f9722a3daafe3b4186f6b6457e060405160405180910390a35050565b828054620001f09062000348565b90600052602060002090601f01602090048101928262000214576000855562000260565b82601f106200022f57805160ff191683800117855562000260565b8280016001018555821562000260579182015b828111156200025f57825182559160200191906001019062000242565b5b5090506200026f919062000273565b5090565b5b808211156200028e57600081600090555060010162000274565b5090565b600080fd5b6000819050919050565b620002ac8162000297565b8114620002b857600080fd5b50565b600081519050620002cc81620002a1565b92915050565b60008060408385031215620002ec57620002eb62000292565b5b6000620002fc85828601620002bb565b92505060206200030f85828601620002bb565b9150509250929050565b7f4e487b7100000000000000000000000000000000000000000000000000000000600052602260045260246000fd5b600060028204905060018216806200036157607f821691505b6020821081141562000378576200037762000319565b5b50919050565b613de7806200038e6000396000f3fe6080604052600436106101815760003560e01c806370a08231116100d1578063a22cb4651161008a578063d204c45e11610064578063d204c45e1461058b578063d9d61655146105b4578063e985e9c5146105f1578063f2fde38b1461062e57610181565b8063a22cb465146104fc578063b88d4fde14610525578063c87b56dd1461054e57610181565b806370a08231146103ea578063715018a6146104275780637528d4c31461043e5780638da5cb5b1461046957806395d89b41146104945780639f1cabc6146104bf57610181565b806318160ddd1161013e57806342842e0e1161011857806342842e0e1461032957806349b5fe1f14610352578063615fd9e21461037d5780636352211e146103ad57610181565b806318160ddd146102aa57806323b872dd146102d557806332cb6b0c146102fe57610181565b806301ffc9a71461018657806306fdde03146101c3578063081812fc146101ee578063095ea7b31461022b5780630e4e0c651461025457806313faede61461027f575b600080fd5b34801561019257600080fd5b506101ad60048036038101906101a8919061282f565b610657565b6040516101ba9190612877565b60405180910390f35b3480156101cf57600080fd5b506101d8610669565b6040516101e5919061292b565b60405180910390f35b3480156101fa57600080fd5b5061021560048036038101906102109190612983565b6106fb565b60405161022291906129f1565b60405180910390f35b34801561023757600080fd5b50610252600480360381019061024d9190612a38565b610741565b005b34801561026057600080fd5b50610269610859565b6040516102769190612a87565b60405180910390f35b34801561028b57600080fd5b50610294610863565b6040516102a19190612a87565b60405180910390f35b3480156102b657600080fd5b506102bf610869565b6040516102cc9190612a87565b60405180910390f35b3480156102e157600080fd5b506102fc60048036038101906102f79190612aa2565b61087a565b005b34801561030a57600080fd5b506103136108da565b6040516103209190612a87565b60405180910390f35b34801561033557600080fd5b50610350600480360381019061034b9190612aa2565b6108df565b005b34801561035e57600080fd5b506103676108ff565b6040516103749190612a87565b60405180910390f35b61039760048036038101906103929190612c2a565b610905565b6040516103a49190612a87565b60405180910390f35b3480156103b957600080fd5b506103d460048036038101906103cf9190612983565b610c77565b6040516103e191906129f1565b60405180910390f35b3480156103f657600080fd5b50610411600480360381019061040c9190612c86565b610cfe565b60405161041e9190612a87565b60405180910390f35b34801561043357600080fd5b5061043c610db6565b005b34801561044a57600080fd5b50610453610dca565b6040516104609190612a87565b60405180910390f35b34801561047557600080fd5b5061047e610dd0565b60405161048b91906129f1565b60405180910390f35b3480156104a057600080fd5b506104a9610dfa565b6040516104b6919061292b565b60405180910390f35b3480156104cb57600080fd5b506104e660048036038101906104e19190612cb3565b610e8c565b6040516104f39190612877565b60405180910390f35b34801561050857600080fd5b50610523600480360381019061051e9190612d28565b610ec7565b005b34801561053157600080fd5b5061054c60048036038101906105479190612e09565b610edd565b005b34801561055a57600080fd5b5061057560048036038101906105709190612983565b610f3f565b604051610582919061292b565b60405180910390f35b34801561059757600080fd5b506105b260048036038101906105ad9190612c2a565b610f51565b005b3480156105c057600080fd5b506105db60048036038101906105d69190612c86565b6110c1565b6040516105e89190612f4a565b60405180910390f35b3480156105fd57600080fd5b5061061860048036038101906106139190612f6c565b611234565b6040516106259190612877565b60405180910390f35b34801561063a57600080fd5b5061065560048036038101906106509190612c86565b6112c8565b005b60006106628261134c565b9050919050565b60606000805461067890612fdb565b80601f01602080910402602001604051908101604052809291908181526020018280546106a490612fdb565b80156106f15780601f106106c6576101008083540402835291602001916106f1565b820191906000526020600020905b8154815290600101906020018083116106d457829003601f168201915b5050505050905090565b6000610706826113ad565b6004600083815260200190815260200160002060009054906101000a900473ffffffffffffffffffffffffffffffffffffffff169050919050565b600061074c82610c77565b90508073ffffffffffffffffffffffffffffffffffffffff168373ffffffffffffffffffffffffffffffffffffffff1614156107bd576040517f08c379a00000000000000000000000000000000000000000000000000000000081526004016107b49061307f565b60405180910390fd5b8073ffffffffffffffffffffffffffffffffffffffff166107dc6113f8565b73ffffffffffffffffffffffffffffffffffffffff16148061080b575061080a816108056113f8565b611234565b5b61084a576040517f08c379a000000000000000000000000000000000000000000000000000000000815260040161084190613111565b60405180910390fd5b6108548383611400565b505050565b6000600e54905090565b600c5481565b600061087560086114b9565b905090565b61088b6108856113f8565b826114c7565b6108ca576040517f08c379a00000000000000000000000000000000000000000000000000000000081526004016108c1906131a3565b60405180910390fd5b6108d583838361155c565b505050565b600581565b6108fa83838360405180602001604052806000815250610edd565b505050565b600d5481565b600062015180600e5461091891906131f2565b600d54610925919061324c565b4210610966576040517f08c379a000000000000000000000000000000000000000000000000000000000815260040161095d906132ee565b60405180910390fd5b6005610970610869565b106109b0576040517f08c379a00000000000000000000000000000000000000000000000000000000081526004016109a79061335a565b60405180910390fd5b60016009836040516109c291906133b6565b908152602001604051809103902060009054906101000a900460ff1660ff161415610a22576040517f08c379a0000000000000000000000000000000000000000000000000000000008152600401610a1990613419565b60405180910390fd5b600c54341015610a67576040517f08c379a0000000000000000000000000000000000000000000000000000000008152600401610a5e90613485565b60405180910390fd5b6000610a7360086114b9565b9050610a7f6008611856565b6001600984604051610a9191906133b6565b908152602001604051809103902060006101000a81548160ff021916908360ff160217905550610ac1848261186c565b610acb8184611a8a565b610b1c81600a60008773ffffffffffffffffffffffffffffffffffffffff1673ffffffffffffffffffffffffffffffffffffffff168152602001908152602001600020611b3590919063ffffffff16565b507f96561394bac381230de4649200e8831afcab1f451881bbade9ef209f6dd30480604051610b4a906134f1565b60405180910390a17ffcf771399d75a67a6d0e730ae98d34c40b6bfe6ebf8053b98ddf4da8c270625081604051610b819190612a87565b60405180910390a17f96561394bac381230de4649200e8831afcab1f451881bbade9ef209f6dd30480604051610bb69061355d565b60405180910390a18373ffffffffffffffffffffffffffffffffffffffff167f36341629533027a87dbcdf4df3be2c81bf2b9e23f8d33eb2b6903f9b873a9fe860405160405180910390a27f96561394bac381230de4649200e8831afcab1f451881bbade9ef209f6dd30480604051610c2e906135c9565b60405180910390a17f96561394bac381230de4649200e8831afcab1f451881bbade9ef209f6dd3048083604051610c65919061292b565b60405180910390a18091505092915050565b600080610c8383611b4f565b9050600073ffffffffffffffffffffffffffffffffffffffff168173ffffffffffffffffffffffffffffffffffffffff161415610cf5576040517f08c379a0000000000000000000000000000000000000000000000000000000008152600401610cec90613635565b60405180910390fd5b80915050919050565b60008073ffffffffffffffffffffffffffffffffffffffff168273ffffffffffffffffffffffffffffffffffffffff161415610d6f576040517f08c379a0000000000000000000000000000000000000000000000000000000008152600401610d66906136c7565b60405180910390fd5b600360008373ffffffffffffffffffffffffffffffffffffffff1673ffffffffffffffffffffffffffffffffffffffff168152602001908152602001600020549050919050565b610dbe611b8c565b610dc86000611c0a565b565b600e5481565b6000600760009054906101000a900473ffffffffffffffffffffffffffffffffffffffff16905090565b606060018054610e0990612fdb565b80601f0160208091040260200160405190810160405280929190818152602001828054610e3590612fdb565b8015610e825780601f10610e5757610100808354040283529160200191610e82565b820191906000526020600020905b815481529060010190602001808311610e6557829003601f168201915b5050505050905090565b60006001600983604051610ea091906133b6565b908152602001604051809103902060009054906101000a900460ff1660ff16149050919050565b610ed9610ed26113f8565b8383611cd0565b5050565b610eee610ee86113f8565b836114c7565b610f2d576040517f08c379a0000000000000000000000000000000000000000000000000000000008152600401610f24906131a3565b60405180910390fd5b610f3984848484611e3d565b50505050565b6060610f4a82611e99565b9050919050565b610f59611b8c565b600b60008373ffffffffffffffffffffffffffffffffffffffff1673ffffffffffffffffffffffffffffffffffffffff16815260200190815260200160002060009054906101000a900460ff1615610fe6576040517f08c379a0000000000000000000000000000000000000000000000000000000008152600401610fdd90613759565b60405180910390fd5b6001600b60008473ffffffffffffffffffffffffffffffffffffffff1673ffffffffffffffffffffffffffffffffffffffff16815260200190815260200160002060006101000a81548160ff021916908315150217905550600061104a60086114b9565b90506110566008611856565b6110608382611fac565b61106a8183611a8a565b6110bb81600a60008673ffffffffffffffffffffffffffffffffffffffff1673ffffffffffffffffffffffffffffffffffffffff168152602001908152602001600020611b3590919063ffffffff16565b50505050565b6060600061110c600a60008573ffffffffffffffffffffffffffffffffffffffff1673ffffffffffffffffffffffffffffffffffffffff168152602001908152602001600020611fca565b67ffffffffffffffff81111561112557611124612aff565b5b6040519080825280602002602001820160405280156111535781602001602082028036833780820191505090505b50905060005b6111a0600a60008673ffffffffffffffffffffffffffffffffffffffff1673ffffffffffffffffffffffffffffffffffffffff168152602001908152602001600020611fca565b81101561122a576111f881600a60008773ffffffffffffffffffffffffffffffffffffffff1673ffffffffffffffffffffffffffffffffffffffff168152602001908152602001600020611fdf90919063ffffffff16565b82828151811061120b5761120a613779565b5b6020026020010181815250508080611222906137a8565b915050611159565b5080915050919050565b6000600560008473ffffffffffffffffffffffffffffffffffffffff1673ffffffffffffffffffffffffffffffffffffffff16815260200190815260200160002060008373ffffffffffffffffffffffffffffffffffffffff1673ffffffffffffffffffffffffffffffffffffffff16815260200190815260200160002060009054906101000a900460ff16905092915050565b6112d0611b8c565b600073ffffffffffffffffffffffffffffffffffffffff168173ffffffffffffffffffffffffffffffffffffffff161415611340576040517f08c379a000000000000000000000000000000000000000000000000000000000815260040161133790613863565b60405180910390fd5b61134981611c0a565b50565b6000634906490660e01b7bffffffffffffffffffffffffffffffffffffffffffffffffffffffff1916827bffffffffffffffffffffffffffffffffffffffffffffffffffffffff191614806113a657506113a582611ff9565b5b9050919050565b6113b6816120db565b6113f5576040517f08c379a00000000000000000000000000000000000000000000000000000000081526004016113ec90613635565b60405180910390fd5b50565b600033905090565b816004600083815260200190815260200160002060006101000a81548173ffffffffffffffffffffffffffffffffffffffff021916908373ffffffffffffffffffffffffffffffffffffffff160217905550808273ffffffffffffffffffffffffffffffffffffffff1661147383610c77565b73ffffffffffffffffffffffffffffffffffffffff167f8c5be1e5ebec7d5bd14f71427d1e84f3dd0314c0f7b2291e5b200ac8c7c3b92560405160405180910390a45050565b600081600001549050919050565b6000806114d383610c77565b90508073ffffffffffffffffffffffffffffffffffffffff168473ffffffffffffffffffffffffffffffffffffffff16148061151557506115148185611234565b5b8061155357508373ffffffffffffffffffffffffffffffffffffffff1661153b846106fb565b73ffffffffffffffffffffffffffffffffffffffff16145b91505092915050565b8273ffffffffffffffffffffffffffffffffffffffff1661157c82610c77565b73ffffffffffffffffffffffffffffffffffffffff16146115d2576040517f08c379a00000000000000000000000000000000000000000000000000000000081526004016115c9906138f5565b60405180910390fd5b600073ffffffffffffffffffffffffffffffffffffffff168273ffffffffffffffffffffffffffffffffffffffff161415611642576040517f08c379a000000000000000000000000000000000000000000000000000000000815260040161163990613987565b60405180910390fd5b61164f838383600161211c565b8273ffffffffffffffffffffffffffffffffffffffff1661166f82610c77565b73ffffffffffffffffffffffffffffffffffffffff16146116c5576040517f08c379a00000000000000000000000000000000000000000000000000000000081526004016116bc906138f5565b60405180910390fd5b6004600082815260200190815260200160002060006101000a81549073ffffffffffffffffffffffffffffffffffffffff02191690556001600360008573ffffffffffffffffffffffffffffffffffffffff1673ffffffffffffffffffffffffffffffffffffffff168152602001908152602001600020600082825403925050819055506001600360008473ffffffffffffffffffffffffffffffffffffffff1673ffffffffffffffffffffffffffffffffffffffff16815260200190815260200160002060008282540192505081905550816002600083815260200190815260200160002060006101000a81548173ffffffffffffffffffffffffffffffffffffffff021916908373ffffffffffffffffffffffffffffffffffffffff160217905550808273ffffffffffffffffffffffffffffffffffffffff168473ffffffffffffffffffffffffffffffffffffffff167fddf252ad1be2c89b69c2b068fc378daa952ba7f163c4a11628f55a4df523b3ef60405160405180910390a46118518383836001612122565b505050565b6001816000016000828254019250508190555050565b600073ffffffffffffffffffffffffffffffffffffffff168273ffffffffffffffffffffffffffffffffffffffff1614156118dc576040517f08c379a00000000000000000000000000000000000000000000000000000000081526004016118d3906139f3565b60405180910390fd5b6118e5816120db565b15611925576040517f08c379a000000000000000000000000000000000000000000000000000000000815260040161191c90613a5f565b60405180910390fd5b61193360008383600161211c565b61193c816120db565b1561197c576040517f08c379a000000000000000000000000000000000000000000000000000000000815260040161197390613a5f565b60405180910390fd5b6001600360008473ffffffffffffffffffffffffffffffffffffffff1673ffffffffffffffffffffffffffffffffffffffff16815260200190815260200160002060008282540192505081905550816002600083815260200190815260200160002060006101000a81548173ffffffffffffffffffffffffffffffffffffffff021916908373ffffffffffffffffffffffffffffffffffffffff160217905550808273ffffffffffffffffffffffffffffffffffffffff16600073ffffffffffffffffffffffffffffffffffffffff167fddf252ad1be2c89b69c2b068fc378daa952ba7f163c4a11628f55a4df523b3ef60405160405180910390a4611a86600083836001612122565b5050565b611a93826120db565b611ad2576040517f08c379a0000000000000000000000000000000000000000000000000000000008152600401611ac990613af1565b60405180910390fd5b80600660008481526020019081526020016000209080519060200190611af9929190612720565b507ff8e1a15aba9398e019f0b49df1a4fde98ee17ae345cb5f6b5e2c27f5033e8ce782604051611b299190612a87565b60405180910390a15050565b6000611b47836000018360001b612128565b905092915050565b60006002600083815260200190815260200160002060009054906101000a900473ffffffffffffffffffffffffffffffffffffffff169050919050565b611b946113f8565b73ffffffffffffffffffffffffffffffffffffffff16611bb2610dd0565b73ffffffffffffffffffffffffffffffffffffffff1614611c08576040517f08c379a0000000000000000000000000000000000000000000000000000000008152600401611bff90613b5d565b60405180910390fd5b565b6000600760009054906101000a900473ffffffffffffffffffffffffffffffffffffffff16905081600760006101000a81548173ffffffffffffffffffffffffffffffffffffffff021916908373ffffffffffffffffffffffffffffffffffffffff1602179055508173ffffffffffffffffffffffffffffffffffffffff168173ffffffffffffffffffffffffffffffffffffffff167f8be0079c531659141344cd1fd0a4f28419497f9722a3daafe3b4186f6b6457e060405160405180910390a35050565b8173ffffffffffffffffffffffffffffffffffffffff168373ffffffffffffffffffffffffffffffffffffffff161415611d3f576040517f08c379a0000000000000000000000000000000000000000000000000000000008152600401611d3690613bc9565b60405180910390fd5b80600560008573ffffffffffffffffffffffffffffffffffffffff1673ffffffffffffffffffffffffffffffffffffffff16815260200190815260200160002060008473ffffffffffffffffffffffffffffffffffffffff1673ffffffffffffffffffffffffffffffffffffffff16815260200190815260200160002060006101000a81548160ff0219169083151502179055508173ffffffffffffffffffffffffffffffffffffffff168373ffffffffffffffffffffffffffffffffffffffff167f17307eab39ab6107e8899845ad3d59bd9653f200f220920489ca2b5937696c3183604051611e309190612877565b60405180910390a3505050565b611e4884848461155c565b611e5484848484612198565b611e93576040517f08c379a0000000000000000000000000000000000000000000000000000000008152600401611e8a90613c5b565b60405180910390fd5b50505050565b6060611ea4826113ad565b6000600660008481526020019081526020016000208054611ec490612fdb565b80601f0160208091040260200160405190810160405280929190818152602001828054611ef090612fdb565b8015611f3d5780601f10611f1257610100808354040283529160200191611f3d565b820191906000526020600020905b815481529060010190602001808311611f2057829003601f168201915b505050505090506000611f4e61232f565b9050600081511415611f64578192505050611fa7565b600082511115611f99578082604051602001611f81929190613c7b565b60405160208183030381529060405292505050611fa7565b611fa284612346565b925050505b919050565b611fc68282604051806020016040528060008152506123ae565b5050565b6000611fd882600001612409565b9050919050565b6000611fee836000018361241a565b60001c905092915050565b60007f80ac58cd000000000000000000000000000000000000000000000000000000007bffffffffffffffffffffffffffffffffffffffffffffffffffffffff1916827bffffffffffffffffffffffffffffffffffffffffffffffffffffffff191614806120c457507f5b5e139f000000000000000000000000000000000000000000000000000000007bffffffffffffffffffffffffffffffffffffffffffffffffffffffff1916827bffffffffffffffffffffffffffffffffffffffffffffffffffffffff1916145b806120d457506120d382612445565b5b9050919050565b60008073ffffffffffffffffffffffffffffffffffffffff166120fd83611b4f565b73ffffffffffffffffffffffffffffffffffffffff1614159050919050565b50505050565b50505050565b600061213483836124af565b61218d578260000182908060018154018082558091505060019003906000526020600020016000909190919091505582600001805490508360010160008481526020019081526020016000208190555060019050612192565b600090505b92915050565b60006121b98473ffffffffffffffffffffffffffffffffffffffff166124d2565b15612322578373ffffffffffffffffffffffffffffffffffffffff1663150b7a026121e26113f8565b8786866040518563ffffffff1660e01b81526004016122049493929190613cf4565b602060405180830381600087803b15801561221e57600080fd5b505af192505050801561224f57506040513d601f19601f8201168201806040525081019061224c9190613d55565b60015b6122d2573d806000811461227f576040519150601f19603f3d011682016040523d82523d6000602084013e612284565b606091505b506000815114156122ca576040517f08c379a00000000000000000000000000000000000000000000000000000000081526004016122c190613c5b565b60405180910390fd5b805181602001fd5b63150b7a0260e01b7bffffffffffffffffffffffffffffffffffffffffffffffffffffffff1916817bffffffffffffffffffffffffffffffffffffffffffffffffffffffff191614915050612327565b600190505b949350505050565b606060405180602001604052806000815250905090565b6060612351826113ad565b600061235b61232f565b9050600081511161237b57604051806020016040528060008152506123a6565b80612385846124f5565b604051602001612396929190613c7b565b6040516020818303038152906040525b915050919050565b6123b8838361186c565b6123c56000848484612198565b612404576040517f08c379a00000000000000000000000000000000000000000000000000000000081526004016123fb90613c5b565b60405180910390fd5b505050565b600081600001805490509050919050565b600082600001828154811061243257612431613779565b5b9060005260206000200154905092915050565b60007f01ffc9a7000000000000000000000000000000000000000000000000000000007bffffffffffffffffffffffffffffffffffffffffffffffffffffffff1916827bffffffffffffffffffffffffffffffffffffffffffffffffffffffff1916149050919050565b600080836001016000848152602001908152602001600020541415905092915050565b6000808273ffffffffffffffffffffffffffffffffffffffff163b119050919050565b606060006001612504846125cd565b01905060008167ffffffffffffffff81111561252357612522612aff565b5b6040519080825280601f01601f1916602001820160405280156125555781602001600182028036833780820191505090505b509050600082602001820190505b6001156125c2578080600190039150507f3031323334353637383961626364656600000000000000000000000000000000600a86061a8153600a85816125ac576125ab613d82565b5b04945060008514156125bd576125c2565b612563565b819350505050919050565b600080600090507a184f03e93ff9f4daa797ed6e38ed64bf6a1f010000000000000000831061262b577a184f03e93ff9f4daa797ed6e38ed64bf6a1f010000000000000000838161262157612620613d82565b5b0492506040810190505b6d04ee2d6d415b85acef81000000008310612668576d04ee2d6d415b85acef8100000000838161265e5761265d613d82565b5b0492506020810190505b662386f26fc10000831061269757662386f26fc10000838161268d5761268c613d82565b5b0492506010810190505b6305f5e10083106126c0576305f5e10083816126b6576126b5613d82565b5b0492506008810190505b61271083106126e55761271083816126db576126da613d82565b5b0492506004810190505b6064831061270857606483816126fe576126fd613d82565b5b0492506002810190505b600a8310612717576001810190505b80915050919050565b82805461272c90612fdb565b90600052602060002090601f01602090048101928261274e5760008555612795565b82601f1061276757805160ff1916838001178555612795565b82800160010185558215612795579182015b82811115612794578251825591602001919060010190612779565b5b5090506127a291906127a6565b5090565b5b808211156127bf5760008160009055506001016127a7565b5090565b6000604051905090565b600080fd5b600080fd5b60007fffffffff0000000000000000000000000000000000000000000000000000000082169050919050565b61280c816127d7565b811461281757600080fd5b50565b60008135905061282981612803565b92915050565b600060208284031215612845576128446127cd565b5b60006128538482850161281a565b91505092915050565b60008115159050919050565b6128718161285c565b82525050565b600060208201905061288c6000830184612868565b92915050565b600081519050919050565b600082825260208201905092915050565b60005b838110156128cc5780820151818401526020810190506128b1565b838111156128db576000848401525b50505050565b6000601f19601f8301169050919050565b60006128fd82612892565b612907818561289d565b93506129178185602086016128ae565b612920816128e1565b840191505092915050565b6000602082019050818103600083015261294581846128f2565b905092915050565b6000819050919050565b6129608161294d565b811461296b57600080fd5b50565b60008135905061297d81612957565b92915050565b600060208284031215612999576129986127cd565b5b60006129a78482850161296e565b91505092915050565b600073ffffffffffffffffffffffffffffffffffffffff82169050919050565b60006129db826129b0565b9050919050565b6129eb816129d0565b82525050565b6000602082019050612a0660008301846129e2565b92915050565b612a15816129d0565b8114612a2057600080fd5b50565b600081359050612a3281612a0c565b92915050565b60008060408385031215612a4f57612a4e6127cd565b5b6000612a5d85828601612a23565b9250506020612a6e8582860161296e565b9150509250929050565b612a818161294d565b82525050565b6000602082019050612a9c6000830184612a78565b92915050565b600080600060608486031215612abb57612aba6127cd565b5b6000612ac986828701612a23565b9350506020612ada86828701612a23565b9250506040612aeb8682870161296e565b9150509250925092565b600080fd5b600080fd5b7f4e487b7100000000000000000000000000000000000000000000000000000000600052604160045260246000fd5b612b37826128e1565b810181811067ffffffffffffffff82111715612b5657612b55612aff565b5b80604052505050565b6000612b696127c3565b9050612b758282612b2e565b919050565b600067ffffffffffffffff821115612b9557612b94612aff565b5b612b9e826128e1565b9050602081019050919050565b82818337600083830152505050565b6000612bcd612bc884612b7a565b612b5f565b905082815260208101848484011115612be957612be8612afa565b5b612bf4848285612bab565b509392505050565b600082601f830112612c1157612c10612af5565b5b8135612c21848260208601612bba565b91505092915050565b60008060408385031215612c4157612c406127cd565b5b6000612c4f85828601612a23565b925050602083013567ffffffffffffffff811115612c7057612c6f6127d2565b5b612c7c85828601612bfc565b9150509250929050565b600060208284031215612c9c57612c9b6127cd565b5b6000612caa84828501612a23565b91505092915050565b600060208284031215612cc957612cc86127cd565b5b600082013567ffffffffffffffff811115612ce757612ce66127d2565b5b612cf384828501612bfc565b91505092915050565b612d058161285c565b8114612d1057600080fd5b50565b600081359050612d2281612cfc565b92915050565b60008060408385031215612d3f57612d3e6127cd565b5b6000612d4d85828601612a23565b9250506020612d5e85828601612d13565b9150509250929050565b600067ffffffffffffffff821115612d8357612d82612aff565b5b612d8c826128e1565b9050602081019050919050565b6000612dac612da784612d68565b612b5f565b905082815260208101848484011115612dc857612dc7612afa565b5b612dd3848285612bab565b509392505050565b600082601f830112612df057612def612af5565b5b8135612e00848260208601612d99565b91505092915050565b60008060008060808587031215612e2357612e226127cd565b5b6000612e3187828801612a23565b9450506020612e4287828801612a23565b9350506040612e538782880161296e565b925050606085013567ffffffffffffffff811115612e7457612e736127d2565b5b612e8087828801612ddb565b91505092959194509250565b600081519050919050565b600082825260208201905092915050565b6000819050602082019050919050565b612ec18161294d565b82525050565b6000612ed38383612eb8565b60208301905092915050565b6000602082019050919050565b6000612ef782612e8c565b612f018185612e97565b9350612f0c83612ea8565b8060005b83811015612f3d578151612f248882612ec7565b9750612f2f83612edf565b925050600181019050612f10565b5085935050505092915050565b60006020820190508181036000830152612f648184612eec565b905092915050565b60008060408385031215612f8357612f826127cd565b5b6000612f9185828601612a23565b9250506020612fa285828601612a23565b9150509250929050565b7f4e487b7100000000000000000000000000000000000000000000000000000000600052602260045260246000fd5b60006002820490506001821680612ff357607f821691505b6020821081141561300757613006612fac565b5b50919050565b7f4552433732313a20617070726f76616c20746f2063757272656e74206f776e6560008201527f7200000000000000000000000000000000000000000000000000000000000000602082015250565b600061306960218361289d565b91506130748261300d565b604082019050919050565b600060208201905081810360008301526130988161305c565b9050919050565b7f4552433732313a20617070726f76652063616c6c6572206973206e6f7420746f60008201527f6b656e206f776e6572206f7220617070726f76656420666f7220616c6c000000602082015250565b60006130fb603d8361289d565b91506131068261309f565b604082019050919050565b6000602082019050818103600083015261312a816130ee565b9050919050565b7f4552433732313a2063616c6c6572206973206e6f7420746f6b656e206f776e6560008201527f72206f7220617070726f76656400000000000000000000000000000000000000602082015250565b600061318d602d8361289d565b915061319882613131565b604082019050919050565b600060208201905081810360008301526131bc81613180565b9050919050565b7f4e487b7100000000000000000000000000000000000000000000000000000000600052601160045260246000fd5b60006131fd8261294d565b91506132088361294d565b9250817fffffffffffffffffffffffffffffffffffffffffffffffffffffffffffffffff0483118215151615613241576132406131c3565b5b828202905092915050565b60006132578261294d565b91506132628361294d565b9250827fffffffffffffffffffffffffffffffffffffffffffffffffffffffffffffffff03821115613297576132966131c3565b5b828201905092915050565b7f4d696e74696e672074696d652068617320657870697265640000000000000000600082015250565b60006132d860188361289d565b91506132e3826132a2565b602082019050919050565b60006020820190508181036000830152613307816132cb565b9050919050565b7f4d617820737570706c7920726561636865640000000000000000000000000000600082015250565b600061334460128361289d565b915061334f8261330e565b602082019050919050565b6000602082019050818103600083015261337381613337565b9050919050565b600081905092915050565b600061339082612892565b61339a818561337a565b93506133aa8185602086016128ae565b80840191505092915050565b60006133c28284613385565b915081905092915050565b7f4e465420616c7265616479204d696e7465640000000000000000000000000000600082015250565b600061340360128361289d565b915061340e826133cd565b602082019050919050565b60006020820190508181036000830152613432816133f6565b9050919050565b7f496e73756666696369656e74207061796d656e74000000000000000000000000600082015250565b600061346f60148361289d565b915061347a82613439565b602082019050919050565b6000602082019050818103600083015261349e81613462565b9050919050565b7f6e6577206974656d496400000000000000000000000000000000000000000000600082015250565b60006134db600a8361289d565b91506134e6826134a5565b602082019050919050565b6000602082019050818103600083015261350a816134ce565b9050919050565b7f2041646472657373000000000000000000000000000000000000000000000000600082015250565b600061354760088361289d565b915061355282613511565b602082019050919050565b600060208201905081810360008301526135768161353a565b9050919050565b7f206d657461555249000000000000000000000000000000000000000000000000600082015250565b60006135b360088361289d565b91506135be8261357d565b602082019050919050565b600060208201905081810360008301526135e2816135a6565b9050919050565b7f4552433732313a20696e76616c696420746f6b656e2049440000000000000000600082015250565b600061361f60188361289d565b915061362a826135e9565b602082019050919050565b6000602082019050818103600083015261364e81613612565b9050919050565b7f4552433732313a2061646472657373207a65726f206973206e6f74206120766160008201527f6c6964206f776e65720000000000000000000000000000000000000000000000602082015250565b60006136b160298361289d565b91506136bc82613655565b604082019050919050565b600060208201905081810360008301526136e0816136a4565b9050919050565b7f416464726573732068617320616c7265616479206d696e74656420616e204e4660008201527f5400000000000000000000000000000000000000000000000000000000000000602082015250565b600061374360218361289d565b915061374e826136e7565b604082019050919050565b6000602082019050818103600083015261377281613736565b9050919050565b7f4e487b7100000000000000000000000000000000000000000000000000000000600052603260045260246000fd5b60006137b38261294d565b91507fffffffffffffffffffffffffffffffffffffffffffffffffffffffffffffffff8214156137e6576137e56131c3565b5b600182019050919050565b7f4f776e61626c653a206e6577206f776e657220697320746865207a65726f206160008201527f6464726573730000000000000000000000000000000000000000000000000000602082015250565b600061384d60268361289d565b9150613858826137f1565b604082019050919050565b6000602082019050818103600083015261387c81613840565b9050919050565b7f4552433732313a207472616e736665722066726f6d20696e636f72726563742060008201527f6f776e6572000000000000000000000000000000000000000000000000000000602082015250565b60006138df60258361289d565b91506138ea82613883565b604082019050919050565b6000602082019050818103600083015261390e816138d2565b9050919050565b7f4552433732313a207472616e7366657220746f20746865207a65726f2061646460008201527f7265737300000000000000000000000000000000000000000000000000000000602082015250565b600061397160248361289d565b915061397c82613915565b604082019050919050565b600060208201905081810360008301526139a081613964565b9050919050565b7f4552433732313a206d696e7420746f20746865207a65726f2061646472657373600082015250565b60006139dd60208361289d565b91506139e8826139a7565b602082019050919050565b60006020820190508181036000830152613a0c816139d0565b9050919050565b7f4552433732313a20746f6b656e20616c7265616479206d696e74656400000000600082015250565b6000613a49601c8361289d565b9150613a5482613a13565b602082019050919050565b60006020820190508181036000830152613a7881613a3c565b9050919050565b7f45524337323155524953746f726167653a2055524920736574206f66206e6f6e60008201527f6578697374656e7420746f6b656e000000000000000000000000000000000000602082015250565b6000613adb602e8361289d565b9150613ae682613a7f565b604082019050919050565b60006020820190508181036000830152613b0a81613ace565b9050919050565b7f4f776e61626c653a2063616c6c6572206973206e6f7420746865206f776e6572600082015250565b6000613b4760208361289d565b9150613b5282613b11565b602082019050919050565b60006020820190508181036000830152613b7681613b3a565b9050919050565b7f4552433732313a20617070726f766520746f2063616c6c657200000000000000600082015250565b6000613bb360198361289d565b9150613bbe82613b7d565b602082019050919050565b60006020820190508181036000830152613be281613ba6565b9050919050565b7f4552433732313a207472616e7366657220746f206e6f6e20455243373231526560008201527f63656976657220696d706c656d656e7465720000000000000000000000000000602082015250565b6000613c4560328361289d565b9150613c5082613be9565b604082019050919050565b60006020820190508181036000830152613c7481613c38565b9050919050565b6000613c878285613385565b9150613c938284613385565b91508190509392505050565b600081519050919050565b600082825260208201905092915050565b6000613cc682613c9f565b613cd08185613caa565b9350613ce08185602086016128ae565b613ce9816128e1565b840191505092915050565b6000608082019050613d0960008301876129e2565b613d1660208301866129e2565b613d236040830185612a78565b8181036060830152613d358184613cbb565b905095945050505050565b600081519050613d4f81612803565b92915050565b600060208284031215613d6b57613d6a6127cd565b5b6000613d7984828501613d40565b91505092915050565b7f4e487b7100000000000000000000000000000000000000000000000000000000600052601260045260246000fdfea26469706673582212202702aa9a7b94560924937e797cc397b0c146dd40ac9e004cbc548d3d805e7b4564736f6c63430008090033",
    "linkReferences": {},
    "deployedLinkReferences": {}
}