{
  "abi": [
    {
      "inputs": [
        {
          "internalType": "uint256",
          "name": "_cost",
          "type": "uint256"
        },
        {
          "internalType": "uint256",
          "name": "_validityPeriodInDays",
          "type": "uint256"
        }
      ],
      "stateMutability": "nonpayable",
      "type": "constructor"
    },
    {
      "inputs": [
        {
          "internalType": "address",
          "name": "sender",
          "type": "address"
        },
        {
          "internalType": "uint256",
          "name": "tokenId",
          "type": "uint256"
        },
        {
          "internalType": "address",
          "name": "owner",
          "type": "address"
        }
      ],
      "name": "ERC721IncorrectOwner",
      "type": "error"
    },
    {
      "inputs": [
        {
          "internalType": "address",
          "name": "operator",
          "type": "address"
        },
        {
          "internalType": "uint256",
          "name": "tokenId",
          "type": "uint256"
        }
      ],
      "name": "ERC721InsufficientApproval",
      "type": "error"
    },
    {
      "inputs": [
        {
          "internalType": "address",
          "name": "approver",
          "type": "address"
        }
      ],
      "name": "ERC721InvalidApprover",
      "type": "error"
    },
    {
      "inputs": [
        {
          "internalType": "address",
          "name": "operator",
          "type": "address"
        }
      ],
      "name": "ERC721InvalidOperator",
      "type": "error"
    },
    {
      "inputs": [
        {
          "internalType": "address",
          "name": "owner",
          "type": "address"
        }
      ],
      "name": "ERC721InvalidOwner",
      "type": "error"
    },
    {
      "inputs": [
        {
          "internalType": "address",
          "name": "receiver",
          "type": "address"
        }
      ],
      "name": "ERC721InvalidReceiver",
      "type": "error"
    },
    {
      "inputs": [
        {
          "internalType": "address",
          "name": "sender",
          "type": "address"
        }
      ],
      "name": "ERC721InvalidSender",
      "type": "error"
    },
    {
      "inputs": [
        {
          "internalType": "uint256",
          "name": "tokenId",
          "type": "uint256"
        }
      ],
      "name": "ERC721NonexistentToken",
      "type": "error"
    },
    {
      "inputs": [
        {
          "internalType": "address",
          "name": "owner",
          "type": "address"
        }
      ],
      "name": "OwnableInvalidOwner",
      "type": "error"
    },
    {
      "inputs": [
        {
          "internalType": "address",
          "name": "account",
          "type": "address"
        }
      ],
      "name": "OwnableUnauthorizedAccount",
      "type": "error"
    },
    {
      "anonymous": false,
      "inputs": [
        {
          "indexed": true,
          "internalType": "address",
          "name": "userAddress",
          "type": "address"
        }
      ],
      "name": "AddressLogged",
      "type": "event"
    },
    {
      "anonymous": false,
      "inputs": [
        {
          "indexed": true,
          "internalType": "address",
          "name": "owner",
          "type": "address"
        },
        {
          "indexed": true,
          "internalType": "address",
          "name": "approved",
          "type": "address"
        },
        {
          "indexed": true,
          "internalType": "uint256",
          "name": "tokenId",
          "type": "uint256"
        }
      ],
      "name": "Approval",
      "type": "event"
    },
    {
      "anonymous": false,
      "inputs": [
        {
          "indexed": true,
          "internalType": "address",
          "name": "owner",
          "type": "address"
        },
        {
          "indexed": true,
          "internalType": "address",
          "name": "operator",
          "type": "address"
        },
        {
          "indexed": false,
          "internalType": "bool",
          "name": "approved",
          "type": "bool"
        }
      ],
      "name": "ApprovalForAll",
      "type": "event"
    },
    {
      "anonymous": false,
      "inputs": [
        {
          "indexed": false,
          "internalType": "uint256",
          "name": "_fromTokenId",
          "type": "uint256"
        },
        {
          "indexed": false,
          "internalType": "uint256",
          "name": "_toTokenId",
          "type": "uint256"
        }
      ],
      "name": "BatchMetadataUpdate",
      "type": "event"
    },
    {
      "anonymous": false,
      "inputs": [
        {
          "indexed": false,
          "internalType": "string",
          "name": "message",
          "type": "string"
        }
      ],
      "name": "LogMessage",
      "type": "event"
    },
    {
      "anonymous": false,
      "inputs": [
        {
          "indexed": false,
          "internalType": "uint256",
          "name": "id",
          "type": "uint256"
        },
        {
          "indexed": false,
          "internalType": "string",
          "name": "value",
          "type": "string"
        }
      ],
      "name": "LogObject",
      "type": "event"
    },
    {
      "anonymous": false,
      "inputs": [
        {
          "indexed": false,
          "internalType": "uint256",
          "name": "value",
          "type": "uint256"
        }
      ],
      "name": "LogValue",
      "type": "event"
    },
    {
      "anonymous": false,
      "inputs": [
        {
          "indexed": false,
          "internalType": "uint256",
          "name": "_tokenId",
          "type": "uint256"
        }
      ],
      "name": "MetadataUpdate",
      "type": "event"
    },
    {
      "anonymous": false,
      "inputs": [
        {
          "indexed": true,
          "internalType": "address",
          "name": "previousOwner",
          "type": "address"
        },
        {
          "indexed": true,
          "internalType": "address",
          "name": "newOwner",
          "type": "address"
        }
      ],
      "name": "OwnershipTransferred",
      "type": "event"
    },
    {
      "anonymous": false,
      "inputs": [
        {
          "indexed": true,
          "internalType": "address",
          "name": "from",
          "type": "address"
        },
        {
          "indexed": true,
          "internalType": "address",
          "name": "to",
          "type": "address"
        },
        {
          "indexed": true,
          "internalType": "uint256",
          "name": "tokenId",
          "type": "uint256"
        }
      ],
      "name": "Transfer",
      "type": "event"
    },
    {
      "inputs": [],
      "name": "MAX_SUPPLY",
      "outputs": [
        {
          "internalType": "uint256",
          "name": "",
          "type": "uint256"
        }
      ],
      "stateMutability": "view",
      "type": "function"
    },
    {
      "inputs": [
        {
          "internalType": "address",
          "name": "to",
          "type": "address"
        },
        {
          "internalType": "uint256",
          "name": "tokenId",
          "type": "uint256"
        }
      ],
      "name": "approve",
      "outputs": [],
      "stateMutability": "nonpayable",
      "type": "function"
    },
    {
      "inputs": [
        {
          "internalType": "address",
          "name": "owner",
          "type": "address"
        }
      ],
      "name": "balanceOf",
      "outputs": [
        {
          "internalType": "uint256",
          "name": "",
          "type": "uint256"
        }
      ],
      "stateMutability": "view",
      "type": "function"
    },
    {
      "inputs": [],
      "name": "cost",
      "outputs": [
        {
          "internalType": "uint256",
          "name": "",
          "type": "uint256"
        }
      ],
      "stateMutability": "view",
      "type": "function"
    },
    {
      "inputs": [
        {
          "internalType": "uint256",
          "name": "tokenId",
          "type": "uint256"
        }
      ],
      "name": "getApproved",
      "outputs": [
        {
          "internalType": "address",
          "name": "",
          "type": "address"
        }
      ],
      "stateMutability": "view",
      "type": "function"
    },
    {
      "inputs": [
        {
          "internalType": "address",
          "name": "wallet",
          "type": "address"
        }
      ],
      "name": "getOwnedTokens",
      "outputs": [
        {
          "internalType": "uint256[]",
          "name": "",
          "type": "uint256[]"
        }
      ],
      "stateMutability": "view",
      "type": "function"
    },
    {
      "inputs": [],
      "name": "getValidityPeriod",
      "outputs": [
        {
          "internalType": "uint256",
          "name": "",
          "type": "uint256"
        }
      ],
      "stateMutability": "view",
      "type": "function"
    },
    {
      "inputs": [
        {
          "internalType": "address",
          "name": "owner",
          "type": "address"
        },
        {
          "internalType": "address",
          "name": "operator",
          "type": "address"
        }
      ],
      "name": "isApprovedForAll",
      "outputs": [
        {
          "internalType": "bool",
          "name": "",
          "type": "bool"
        }
      ],
      "stateMutability": "view",
      "type": "function"
    },
    {
      "inputs": [
        {
          "internalType": "string",
          "name": "uri",
          "type": "string"
        }
      ],
      "name": "isContentOwned",
      "outputs": [
        {
          "internalType": "bool",
          "name": "",
          "type": "bool"
        }
      ],
      "stateMutability": "view",
      "type": "function"
    },
    {
      "inputs": [],
      "name": "mintStartDate",
      "outputs": [
        {
          "internalType": "uint256",
          "name": "",
          "type": "uint256"
        }
      ],
      "stateMutability": "view",
      "type": "function"
    },
    {
      "inputs": [],
      "name": "name",
      "outputs": [
        {
          "internalType": "string",
          "name": "",
          "type": "string"
        }
      ],
      "stateMutability": "view",
      "type": "function"
    },
    {
      "inputs": [],
      "name": "owner",
      "outputs": [
        {
          "internalType": "address",
          "name": "",
          "type": "address"
        }
      ],
      "stateMutability": "view",
      "type": "function"
    },
    {
      "inputs": [
        {
          "internalType": "uint256",
          "name": "tokenId",
          "type": "uint256"
        }
      ],
      "name": "ownerOf",
      "outputs": [
        {
          "internalType": "address",
          "name": "",
          "type": "address"
        }
      ],
      "stateMutability": "view",
      "type": "function"
    },
    {
      "inputs": [
        {
          "internalType": "address",
          "name": "recipient",
          "type": "address"
        },
        {
          "internalType": "string",
          "name": "metadataURI",
          "type": "string"
        }
      ],
      "name": "payToMint",
      "outputs": [
        {
          "internalType": "uint256",
          "name": "",
          "type": "uint256"
        }
      ],
      "stateMutability": "payable",
      "type": "function"
    },
    {
      "inputs": [],
      "name": "renounceOwnership",
      "outputs": [],
      "stateMutability": "nonpayable",
      "type": "function"
    },
    {
      "inputs": [
        {
          "internalType": "address",
          "name": "to",
          "type": "address"
        },
        {
          "internalType": "string",
          "name": "uri",
          "type": "string"
        }
      ],
      "name": "safeMint",
      "outputs": [],
      "stateMutability": "nonpayable",
      "type": "function"
    },
    {
      "inputs": [
        {
          "internalType": "address",
          "name": "from",
          "type": "address"
        },
        {
          "internalType": "address",
          "name": "to",
          "type": "address"
        },
        {
          "internalType": "uint256",
          "name": "tokenId",
          "type": "uint256"
        }
      ],
      "name": "safeTransferFrom",
      "outputs": [],
      "stateMutability": "nonpayable",
      "type": "function"
    },
    {
      "inputs": [
        {
          "internalType": "address",
          "name": "from",
          "type": "address"
        },
        {
          "internalType": "address",
          "name": "to",
          "type": "address"
        },
        {
          "internalType": "uint256",
          "name": "tokenId",
          "type": "uint256"
        },
        {
          "internalType": "bytes",
          "name": "data",
          "type": "bytes"
        }
      ],
      "name": "safeTransferFrom",
      "outputs": [],
      "stateMutability": "nonpayable",
      "type": "function"
    },
    {
      "inputs": [
        {
          "internalType": "address",
          "name": "operator",
          "type": "address"
        },
        {
          "internalType": "bool",
          "name": "approved",
          "type": "bool"
        }
      ],
      "name": "setApprovalForAll",
      "outputs": [],
      "stateMutability": "nonpayable",
      "type": "function"
    },
    {
      "inputs": [
        {
          "internalType": "bytes4",
          "name": "interfaceId",
          "type": "bytes4"
        }
      ],
      "name": "supportsInterface",
      "outputs": [
        {
          "internalType": "bool",
          "name": "",
          "type": "bool"
        }
      ],
      "stateMutability": "view",
      "type": "function"
    },
    {
      "inputs": [],
      "name": "symbol",
      "outputs": [
        {
          "internalType": "string",
          "name": "",
          "type": "string"
        }
      ],
      "stateMutability": "view",
      "type": "function"
    },
    {
      "inputs": [
        {
          "internalType": "uint256",
          "name": "tokenId",
          "type": "uint256"
        }
      ],
      "name": "tokenURI",
      "outputs": [
        {
          "internalType": "string",
          "name": "",
          "type": "string"
        }
      ],
      "stateMutability": "view",
      "type": "function"
    },
    {
      "inputs": [],
      "name": "totalSupply",
      "outputs": [
        {
          "internalType": "uint256",
          "name": "",
          "type": "uint256"
        }
      ],
      "stateMutability": "view",
      "type": "function"
    },
    {
      "inputs": [
        {
          "internalType": "address",
          "name": "from",
          "type": "address"
        },
        {
          "internalType": "address",
          "name": "to",
          "type": "address"
        },
        {
          "internalType": "uint256",
          "name": "tokenId",
          "type": "uint256"
        }
      ],
      "name": "transferFrom",
      "outputs": [],
      "stateMutability": "nonpayable",
      "type": "function"
    },
    {
      "inputs": [
        {
          "internalType": "address",
          "name": "newOwner",
          "type": "address"
        }
      ],
      "name": "transferOwnership",
      "outputs": [],
      "stateMutability": "nonpayable",
      "type": "function"
    },
    {
      "inputs": [],
      "name": "validityPeriodInDays",
      "outputs": [
        {
          "internalType": "uint256",
          "name": "",
          "type": "uint256"
        }
      ],
      "stateMutability": "view",
      "type": "function"
    }
  ],
  "bytecode": {
    "object": "0x60806040523480156200001157600080fd5b5060405162001ffc38038062001ffc833981016040819052620000349162000138565b33604051806040016040528060098152602001682132b73d2a37b5b2b760b91b81525060405180604001604052806005815260200164424e5a544b60d81b815250816000908162000086919062000204565b50600162000095828262000204565b5050506001600160a01b038116620000c757604051631e4fbdf760e01b81526000600482015260240160405180910390fd5b620000d281620000e6565b5042600d55600c91909155600e55620002d0565b600780546001600160a01b038381166001600160a01b0319831681179093556040519116919082907f8be0079c531659141344cd1fd0a4f28419497f9722a3daafe3b4186f6b6457e090600090a35050565b600080604083850312156200014c57600080fd5b505080516020909101519092909150565b634e487b7160e01b600052604160045260246000fd5b600181811c908216806200018857607f821691505b602082108103620001a957634e487b7160e01b600052602260045260246000fd5b50919050565b601f821115620001ff576000816000526020600020601f850160051c81016020861015620001da5750805b601f850160051c820191505b81811015620001fb57828155600101620001e6565b5050505b505050565b81516001600160401b038111156200022057620002206200015d565b620002388162000231845462000173565b84620001af565b602080601f831160018114620002705760008415620002575750858301515b600019600386901b1c1916600185901b178555620001fb565b600085815260208120601f198616915b82811015620002a15788860151825594840194600190910190840162000280565b5085821015620002c05787850151600019600388901b60f8161c191681555b5050505050600190811b01905550565b611d1c80620002e06000396000f3fe6080604052600436106101815760003560e01c806370a08231116100d1578063a22cb4651161008a578063d204c45e11610064578063d204c45e1461041d578063d9d616551461043d578063e985e9c51461046a578063f2fde38b1461048a57600080fd5b8063a22cb465146103bd578063b88d4fde146103dd578063c87b56dd146103fd57600080fd5b806370a082311461031f578063715018a61461033f5780637528d4c3146103545780638da5cb5b1461036a57806395d89b41146103885780639f1cabc61461039d57600080fd5b806318160ddd1161013e57806342842e0e1161011857806342842e0e146102b657806349b5fe1f146102d6578063615fd9e2146102ec5780636352211e146102ff57600080fd5b806318160ddd1461026c57806323b872dd1461028157806332cb6b0c146102a157600080fd5b806301ffc9a71461018657806306fdde03146101bb578063081812fc146101dd578063095ea7b3146102155780630e4e0c651461023757806313faede614610256575b600080fd5b34801561019257600080fd5b506101a66101a13660046116ed565b6104aa565b60405190151581526020015b60405180910390f35b3480156101c757600080fd5b506101d06104bb565b6040516101b2919061175a565b3480156101e957600080fd5b506101fd6101f836600461176d565b61054d565b6040516001600160a01b0390911681526020016101b2565b34801561022157600080fd5b506102356102303660046117a2565b610576565b005b34801561024357600080fd5b50600e545b6040519081526020016101b2565b34801561026257600080fd5b50610248600c5481565b34801561027857600080fd5b50610248610585565b34801561028d57600080fd5b5061023561029c3660046117cc565b610595565b3480156102ad57600080fd5b50610248600581565b3480156102c257600080fd5b506102356102d13660046117cc565b610625565b3480156102e257600080fd5b50610248600d5481565b6102486102fa3660046118b4565b610645565b34801561030b57600080fd5b506101fd61031a36600461176d565b61098b565b34801561032b57600080fd5b5061024861033a366004611902565b610996565b34801561034b57600080fd5b506102356109de565b34801561036057600080fd5b50610248600e5481565b34801561037657600080fd5b506007546001600160a01b03166101fd565b34801561039457600080fd5b506101d06109f2565b3480156103a957600080fd5b506101a66103b836600461191d565b610a01565b3480156103c957600080fd5b506102356103d8366004611952565b610a2f565b3480156103e957600080fd5b506102356103f836600461198e565b610a3a565b34801561040957600080fd5b506101d061041836600461176d565b610a51565b34801561042957600080fd5b506102356104383660046118b4565b610a5c565b34801561044957600080fd5b5061045d610458366004611902565b610b49565b6040516101b29190611a0a565b34801561047657600080fd5b506101a6610485366004611a4e565b610c2b565b34801561049657600080fd5b506102356104a5366004611902565b610c59565b60006104b582610c97565b92915050565b6060600080546104ca90611a81565b80601f01602080910402602001604051908101604052809291908181526020018280546104f690611a81565b80156105435780601f1061051857610100808354040283529160200191610543565b820191906000526020600020905b81548152906001019060200180831161052657829003601f168201915b5050505050905090565b600061055882610cbc565b506000828152600460205260409020546001600160a01b03166104b5565b610581828233610cf5565b5050565b600061059060085490565b905090565b6001600160a01b0382166105c457604051633250574960e11b8152600060048201526024015b60405180910390fd5b60006105d1838333610d02565b9050836001600160a01b0316816001600160a01b03161461061f576040516364283d7b60e01b81526001600160a01b03808616600483015260248201849052821660448201526064016105bb565b50505050565b61064083838360405180602001604052806000815250610a3a565b505050565b6000600e54620151806106589190611ad1565b600d546106659190611ae8565b42106106b35760405162461bcd60e51b815260206004820152601860248201527f4d696e74696e672074696d65206861732065787069726564000000000000000060448201526064016105bb565b60056106bd610585565b106106ff5760405162461bcd60e51b815260206004820152601260248201527113585e081cdd5c1c1b1e481c995858da195960721b60448201526064016105bb565b60098260405161070f9190611afb565b9081526040519081900360200190205460ff166001036107665760405162461bcd60e51b815260206004820152601260248201527113919508185b1c9958591e48135a5b9d195960721b60448201526064016105bb565b600c543410156107af5760405162461bcd60e51b8152602060048201526014602482015273125b9cdd59999a58da595b9d081c185e5b595b9d60621b60448201526064016105bb565b60006107ba60085490565b90506107ca600880546001019055565b60016009846040516107dc9190611afb565b908152604051908190036020019020805460ff9290921660ff199092169190911790556108098482610dfb565b6108138184610e60565b6001600160a01b0384166000908152600a602052604090206108359082610eb0565b50600080516020611cc7833981519152604051610870906020808252600a90820152691b995dc81a5d195b525960b21b604082015260600190565b60405180910390a16040518181527ffcf771399d75a67a6d0e730ae98d34c40b6bfe6ebf8053b98ddf4da8c27062509060200160405180910390a1600080516020611cc78339815191526040516108e390602080825260089082015267204164647265737360c01b604082015260600190565b60405180910390a16040516001600160a01b038516907f36341629533027a87dbcdf4df3be2c81bf2b9e23f8d33eb2b6903f9b873a9fe890600090a2600080516020611cc783398151915260405161095790602080825260089082015267206d65746155524960c01b604082015260600190565b60405180910390a1600080516020611cc78339815191528360405161097c919061175a565b60405180910390a19392505050565b60006104b582610cbc565b60006001600160a01b0382166109c2576040516322718ad960e21b8152600060048201526024016105bb565b506001600160a01b031660009081526003602052604090205490565b6109e6610ec3565b6109f06000610ef0565b565b6060600180546104ca90611a81565b6000600982604051610a139190611afb565b9081526040519081900360200190205460ff1660011492915050565b610581338383610f42565b610a45848484610595565b61061f84848484610fe1565b60606104b58261110a565b610a64610ec3565b6001600160a01b0382166000908152600b602052604090205460ff1615610ad75760405162461bcd60e51b815260206004820152602160248201527f416464726573732068617320616c7265616479206d696e74656420616e204e466044820152601560fa1b60648201526084016105bb565b6001600160a01b0382166000908152600b60205260408120805460ff19166001179055610b0360085490565b9050610b13600880546001019055565b610b1d838261121b565b610b278183610e60565b6001600160a01b0383166000908152600a6020526040902061061f9082610eb0565b6001600160a01b0381166000908152600a6020526040812060609190610b6e90611235565b67ffffffffffffffff811115610b8657610b86611808565b604051908082528060200260200182016040528015610baf578160200160208202803683370190505b50905060005b6001600160a01b0384166000908152600a60205260409020610bd690611235565b811015610c24576001600160a01b0384166000908152600a60205260409020610bff908261123f565b828281518110610c1157610c11611b17565b6020908102919091010152600101610bb5565b5092915050565b6001600160a01b03918216600090815260056020908152604080832093909416825291909152205460ff1690565b610c61610ec3565b6001600160a01b038116610c8b57604051631e4fbdf760e01b8152600060048201526024016105bb565b610c9481610ef0565b50565b60006001600160e01b03198216632483248360e11b14806104b557506104b58261124b565b6000818152600260205260408120546001600160a01b0316806104b557604051637e27328960e01b8152600481018490526024016105bb565b610640838383600161129b565b6000828152600260205260408120546001600160a01b0390811690831615610d2f57610d2f8184866113a1565b6001600160a01b03811615610d6d57610d4c60008560008061129b565b6001600160a01b038116600090815260036020526040902080546000190190555b6001600160a01b03851615610d9c576001600160a01b0385166000908152600360205260409020805460010190555b60008481526002602052604080822080546001600160a01b0319166001600160a01b0389811691821790925591518793918516917fddf252ad1be2c89b69c2b068fc378daa952ba7f163c4a11628f55a4df523b3ef91a4949350505050565b6001600160a01b038216610e2557604051633250574960e11b8152600060048201526024016105bb565b6000610e3383836000610d02565b90506001600160a01b03811615610640576040516339e3563760e11b8152600060048201526024016105bb565b6000828152600660205260409020610e788282611b7d565b506040518281527ff8e1a15aba9398e019f0b49df1a4fde98ee17ae345cb5f6b5e2c27f5033e8ce79060200160405180910390a15050565b6000610ebc8383611405565b9392505050565b6007546001600160a01b031633146109f05760405163118cdaa760e01b81523360048201526024016105bb565b600780546001600160a01b038381166001600160a01b0319831681179093556040519116919082907f8be0079c531659141344cd1fd0a4f28419497f9722a3daafe3b4186f6b6457e090600090a35050565b6001600160a01b038216610f7457604051630b61174360e31b81526001600160a01b03831660048201526024016105bb565b6001600160a01b03838116600081815260056020908152604080832094871680845294825291829020805460ff191686151590811790915591519182527f17307eab39ab6107e8899845ad3d59bd9653f200f220920489ca2b5937696c31910160405180910390a3505050565b6001600160a01b0383163b1561061f57604051630a85bd0160e11b81526001600160a01b0384169063150b7a0290611023903390889087908790600401611c3d565b6020604051808303816000875af192505050801561105e575060408051601f3d908101601f1916820190925261105b91810190611c7a565b60015b6110c7573d80801561108c576040519150601f19603f3d011682016040523d82523d6000602084013e611091565b606091505b5080516000036110bf57604051633250574960e11b81526001600160a01b03851660048201526024016105bb565b805181602001fd5b6001600160e01b03198116630a85bd0160e11b1461110357604051633250574960e11b81526001600160a01b03851660048201526024016105bb565b5050505050565b606061111582610cbc565b506000828152600660205260408120805461112f90611a81565b80601f016020809104026020016040519081016040528092919081815260200182805461115b90611a81565b80156111a85780601f1061117d576101008083540402835291602001916111a8565b820191906000526020600020905b81548152906001019060200180831161118b57829003601f168201915b5050505050905060006111c660408051602081019091526000815290565b905080516000036111d8575092915050565b81511561120a5780826040516020016111f2929190611c97565b60405160208183030381529060405292505050919050565b61121384611454565b949350505050565b6105818282604051806020016040528060008152506114c8565b60006104b5825490565b6000610ebc83836114df565b60006001600160e01b031982166380ac58cd60e01b148061127c57506001600160e01b03198216635b5e139f60e01b145b806104b557506301ffc9a760e01b6001600160e01b03198316146104b5565b80806112af57506001600160a01b03821615155b156113715760006112bf84610cbc565b90506001600160a01b038316158015906112eb5750826001600160a01b0316816001600160a01b031614155b80156112fe57506112fc8184610c2b565b155b156113275760405163a9fbf51f60e01b81526001600160a01b03841660048201526024016105bb565b811561136f5783856001600160a01b0316826001600160a01b03167f8c5be1e5ebec7d5bd14f71427d1e84f3dd0314c0f7b2291e5b200ac8c7c3b92560405160405180910390a45b505b5050600090815260046020526040902080546001600160a01b0319166001600160a01b0392909216919091179055565b6113ac838383611509565b610640576001600160a01b0383166113da57604051637e27328960e01b8152600481018290526024016105bb565b60405163177e802f60e01b81526001600160a01b0383166004820152602481018290526044016105bb565b600081815260018301602052604081205461144c575081546001818101845560008481526020808220909301849055845484825282860190935260409020919091556104b5565b5060006104b5565b606061145f82610cbc565b50600061147760408051602081019091526000815290565b905060008151116114975760405180602001604052806000815250610ebc565b806114a18461156c565b6040516020016114b2929190611c97565b6040516020818303038152906040529392505050565b6114d28383610dfb565b6106406000848484610fe1565b60008260000182815481106114f6576114f6611b17565b9060005260206000200154905092915050565b60006001600160a01b038316158015906112135750826001600160a01b0316846001600160a01b0316148061154357506115438484610c2b565b806112135750506000908152600460205260409020546001600160a01b03908116911614919050565b60606000611579836115ff565b600101905060008167ffffffffffffffff81111561159957611599611808565b6040519080825280601f01601f1916602001820160405280156115c3576020820181803683370190505b5090508181016020015b600019016f181899199a1a9b1b9c1cb0b131b232b360811b600a86061a8153600a85049450846115cd57509392505050565b60008072184f03e93ff9f4daa797ed6e38ed64bf6a1f0160401b831061163e5772184f03e93ff9f4daa797ed6e38ed64bf6a1f0160401b830492506040015b6d04ee2d6d415b85acef8100000000831061166a576d04ee2d6d415b85acef8100000000830492506020015b662386f26fc10000831061168857662386f26fc10000830492506010015b6305f5e10083106116a0576305f5e100830492506008015b61271083106116b457612710830492506004015b606483106116c6576064830492506002015b600a83106104b55760010192915050565b6001600160e01b031981168114610c9457600080fd5b6000602082840312156116ff57600080fd5b8135610ebc816116d7565b60005b8381101561172557818101518382015260200161170d565b50506000910152565b6000815180845261174681602086016020860161170a565b601f01601f19169290920160200192915050565b602081526000610ebc602083018461172e565b60006020828403121561177f57600080fd5b5035919050565b80356001600160a01b038116811461179d57600080fd5b919050565b600080604083850312156117b557600080fd5b6117be83611786565b946020939093013593505050565b6000806000606084860312156117e157600080fd5b6117ea84611786565b92506117f860208501611786565b9150604084013590509250925092565b634e487b7160e01b600052604160045260246000fd5b600067ffffffffffffffff8084111561183957611839611808565b604051601f8501601f19908116603f0116810190828211818310171561186157611861611808565b8160405280935085815286868601111561187a57600080fd5b858560208301376000602087830101525050509392505050565b600082601f8301126118a557600080fd5b610ebc8383356020850161181e565b600080604083850312156118c757600080fd5b6118d083611786565b9150602083013567ffffffffffffffff8111156118ec57600080fd5b6118f885828601611894565b9150509250929050565b60006020828403121561191457600080fd5b610ebc82611786565b60006020828403121561192f57600080fd5b813567ffffffffffffffff81111561194657600080fd5b61121384828501611894565b6000806040838503121561196557600080fd5b61196e83611786565b91506020830135801515811461198357600080fd5b809150509250929050565b600080600080608085870312156119a457600080fd5b6119ad85611786565b93506119bb60208601611786565b925060408501359150606085013567ffffffffffffffff8111156119de57600080fd5b8501601f810187136119ef57600080fd5b6119fe8782356020840161181e565b91505092959194509250565b6020808252825182820181905260009190848201906040850190845b81811015611a4257835183529284019291840191600101611a26565b50909695505050505050565b60008060408385031215611a6157600080fd5b611a6a83611786565b9150611a7860208401611786565b90509250929050565b600181811c90821680611a9557607f821691505b602082108103611ab557634e487b7160e01b600052602260045260246000fd5b50919050565b634e487b7160e01b600052601160045260246000fd5b80820281158282048414176104b5576104b5611abb565b808201808211156104b5576104b5611abb565b60008251611b0d81846020870161170a565b9190910192915050565b634e487b7160e01b600052603260045260246000fd5b601f821115610640576000816000526020600020601f850160051c81016020861015611b565750805b601f850160051c820191505b81811015611b7557828155600101611b62565b505050505050565b815167ffffffffffffffff811115611b9757611b97611808565b611bab81611ba58454611a81565b84611b2d565b602080601f831160018114611be05760008415611bc85750858301515b600019600386901b1c1916600185901b178555611b75565b600085815260208120601f198616915b82811015611c0f57888601518255948401946001909101908401611bf0565b5085821015611c2d5787850151600019600388901b60f8161c191681555b5050505050600190811b01905550565b6001600160a01b0385811682528416602082015260408101839052608060608201819052600090611c709083018461172e565b9695505050505050565b600060208284031215611c8c57600080fd5b8151610ebc816116d7565b60008351611ca981846020880161170a565b835190830190611cbd81836020880161170a565b0194935050505056fe96561394bac381230de4649200e8831afcab1f451881bbade9ef209f6dd30480a26469706673582212202d5acbeb085d6fbafd4072be147cb7a20005b769b619c233938da5fbaf14431564736f6c63430008160033",
    "linkReferences": {}
  },
  "methodIdentifiers": {
    "MAX_SUPPLY()": "32cb6b0c",
    "approve(address,uint256)": "095ea7b3",
    "balanceOf(address)": "70a08231",
    "cost()": "13faede6",
    "getApproved(uint256)": "081812fc",
    "getOwnedTokens(address)": "d9d61655",
    "getValidityPeriod()": "0e4e0c65",
    "isApprovedForAll(address,address)": "e985e9c5",
    "isContentOwned(string)": "9f1cabc6",
    "mintStartDate()": "49b5fe1f",
    "name()": "06fdde03",
    "owner()": "8da5cb5b",
    "ownerOf(uint256)": "6352211e",
    "payToMint(address,string)": "615fd9e2",
    "renounceOwnership()": "715018a6",
    "safeMint(address,string)": "d204c45e",
    "safeTransferFrom(address,address,uint256)": "42842e0e",
    "safeTransferFrom(address,address,uint256,bytes)": "b88d4fde",
    "setApprovalForAll(address,bool)": "a22cb465",
    "supportsInterface(bytes4)": "01ffc9a7",
    "symbol()": "95d89b41",
    "tokenURI(uint256)": "c87b56dd",
    "totalSupply()": "18160ddd",
    "transferFrom(address,address,uint256)": "23b872dd",
    "transferOwnership(address)": "f2fde38b",
    "validityPeriodInDays()": "7528d4c3"
  },
  "id": 39
}