{
  "abi": [
    {
      "inputs": [
        {
          "internalType": "uint256",
          "name": "_startDate",
          "type": "uint256"
        },
        {
          "internalType": "uint256",
          "name": "_endDate",
          "type": "uint256"
        },
        {
          "internalType": "string[]",
          "name": "tokenURIs",
          "type": "string[]"
        }
      ],
      "stateMutability": "nonpayable",
      "type": "constructor"
    },
    {
      "inputs": [
        {
          "internalType": "address",
          "name": "sender",
          "type": "address"
        },
        {
          "internalType": "uint256",
          "name": "tokenId",
          "type": "uint256"
        },
        {
          "internalType": "address",
          "name": "owner",
          "type": "address"
        }
      ],
      "name": "ERC721IncorrectOwner",
      "type": "error"
    },
    {
      "inputs": [
        {
          "internalType": "address",
          "name": "operator",
          "type": "address"
        },
        {
          "internalType": "uint256",
          "name": "tokenId",
          "type": "uint256"
        }
      ],
      "name": "ERC721InsufficientApproval",
      "type": "error"
    },
    {
      "inputs": [
        {
          "internalType": "address",
          "name": "approver",
          "type": "address"
        }
      ],
      "name": "ERC721InvalidApprover",
      "type": "error"
    },
    {
      "inputs": [
        {
          "internalType": "address",
          "name": "operator",
          "type": "address"
        }
      ],
      "name": "ERC721InvalidOperator",
      "type": "error"
    },
    {
      "inputs": [
        {
          "internalType": "address",
          "name": "owner",
          "type": "address"
        }
      ],
      "name": "ERC721InvalidOwner",
      "type": "error"
    },
    {
      "inputs": [
        {
          "internalType": "address",
          "name": "receiver",
          "type": "address"
        }
      ],
      "name": "ERC721InvalidReceiver",
      "type": "error"
    },
    {
      "inputs": [
        {
          "internalType": "address",
          "name": "sender",
          "type": "address"
        }
      ],
      "name": "ERC721InvalidSender",
      "type": "error"
    },
    {
      "inputs": [
        {
          "internalType": "uint256",
          "name": "tokenId",
          "type": "uint256"
        }
      ],
      "name": "ERC721NonexistentToken",
      "type": "error"
    },
    {
      "anonymous": false,
      "inputs": [
        {
          "indexed": true,
          "internalType": "address",
          "name": "owner",
          "type": "address"
        },
        {
          "indexed": true,
          "internalType": "address",
          "name": "approved",
          "type": "address"
        },
        {
          "indexed": true,
          "internalType": "uint256",
          "name": "tokenId",
          "type": "uint256"
        }
      ],
      "name": "Approval",
      "type": "event"
    },
    {
      "anonymous": false,
      "inputs": [
        {
          "indexed": true,
          "internalType": "address",
          "name": "owner",
          "type": "address"
        },
        {
          "indexed": true,
          "internalType": "address",
          "name": "operator",
          "type": "address"
        },
        {
          "indexed": false,
          "internalType": "bool",
          "name": "approved",
          "type": "bool"
        }
      ],
      "name": "ApprovalForAll",
      "type": "event"
    },
    {
      "anonymous": false,
      "inputs": [
        {
          "indexed": false,
          "internalType": "uint256",
          "name": "_fromTokenId",
          "type": "uint256"
        },
        {
          "indexed": false,
          "internalType": "uint256",
          "name": "_toTokenId",
          "type": "uint256"
        }
      ],
      "name": "BatchMetadataUpdate",
      "type": "event"
    },
    {
      "anonymous": false,
      "inputs": [
        {
          "indexed": false,
          "internalType": "uint256",
          "name": "_tokenId",
          "type": "uint256"
        }
      ],
      "name": "MetadataUpdate",
      "type": "event"
    },
    {
      "anonymous": false,
      "inputs": [
        {
          "indexed": true,
          "internalType": "address",
          "name": "from",
          "type": "address"
        },
        {
          "indexed": true,
          "internalType": "address",
          "name": "to",
          "type": "address"
        },
        {
          "indexed": true,
          "internalType": "uint256",
          "name": "tokenId",
          "type": "uint256"
        }
      ],
      "name": "Transfer",
      "type": "event"
    },
    {
      "inputs": [
        {
          "internalType": "address",
          "name": "to",
          "type": "address"
        },
        {
          "internalType": "uint256",
          "name": "tokenId",
          "type": "uint256"
        }
      ],
      "name": "approve",
      "outputs": [],
      "stateMutability": "nonpayable",
      "type": "function"
    },
    {
      "inputs": [
        {
          "internalType": "address",
          "name": "owner",
          "type": "address"
        }
      ],
      "name": "balanceOf",
      "outputs": [
        {
          "internalType": "uint256",
          "name": "",
          "type": "uint256"
        }
      ],
      "stateMutability": "view",
      "type": "function"
    },
    {
      "inputs": [],
      "name": "endDate",
      "outputs": [
        {
          "internalType": "uint256",
          "name": "",
          "type": "uint256"
        }
      ],
      "stateMutability": "view",
      "type": "function"
    },
    {
      "inputs": [
        {
          "internalType": "uint256",
          "name": "tokenId",
          "type": "uint256"
        }
      ],
      "name": "getApproved",
      "outputs": [
        {
          "internalType": "address",
          "name": "",
          "type": "address"
        }
      ],
      "stateMutability": "view",
      "type": "function"
    },
    {
      "inputs": [],
      "name": "getReceipt",
      "outputs": [
        {
          "internalType": "string",
          "name": "",
          "type": "string"
        }
      ],
      "stateMutability": "view",
      "type": "function"
    },
    {
      "inputs": [
        {
          "internalType": "address",
          "name": "owner",
          "type": "address"
        },
        {
          "internalType": "address",
          "name": "operator",
          "type": "address"
        }
      ],
      "name": "isApprovedForAll",
      "outputs": [
        {
          "internalType": "bool",
          "name": "",
          "type": "bool"
        }
      ],
      "stateMutability": "view",
      "type": "function"
    },
    {
      "inputs": [
        {
          "internalType": "address",
          "name": "minter",
          "type": "address"
        }
      ],
      "name": "isMinter",
      "outputs": [
        {
          "internalType": "bool",
          "name": "",
          "type": "bool"
        }
      ],
      "stateMutability": "view",
      "type": "function"
    },
    {
      "inputs": [],
      "name": "mintNFT",
      "outputs": [
        {
          "internalType": "uint256",
          "name": "",
          "type": "uint256"
        }
      ],
      "stateMutability": "nonpayable",
      "type": "function"
    },
    {
      "inputs": [],
      "name": "name",
      "outputs": [
        {
          "internalType": "string",
          "name": "",
          "type": "string"
        }
      ],
      "stateMutability": "view",
      "type": "function"
    },
    {
      "inputs": [
        {
          "internalType": "uint256",
          "name": "tokenId",
          "type": "uint256"
        }
      ],
      "name": "ownerOf",
      "outputs": [
        {
          "internalType": "address",
          "name": "",
          "type": "address"
        }
      ],
      "stateMutability": "view",
      "type": "function"
    },
    {
      "inputs": [
        {
          "internalType": "address",
          "name": "from",
          "type": "address"
        }
      ],
      "name": "queryReceipt",
      "outputs": [
        {
          "internalType": "string",
          "name": "",
          "type": "string"
        }
      ],
      "stateMutability": "view",
      "type": "function"
    },
    {
      "inputs": [
        {
          "internalType": "address",
          "name": "from",
          "type": "address"
        },
        {
          "internalType": "address",
          "name": "to",
          "type": "address"
        },
        {
          "internalType": "uint256",
          "name": "tokenId",
          "type": "uint256"
        }
      ],
      "name": "safeTransferFrom",
      "outputs": [],
      "stateMutability": "nonpayable",
      "type": "function"
    },
    {
      "inputs": [
        {
          "internalType": "address",
          "name": "from",
          "type": "address"
        },
        {
          "internalType": "address",
          "name": "to",
          "type": "address"
        },
        {
          "internalType": "uint256",
          "name": "tokenId",
          "type": "uint256"
        },
        {
          "internalType": "bytes",
          "name": "data",
          "type": "bytes"
        }
      ],
      "name": "safeTransferFrom",
      "outputs": [],
      "stateMutability": "nonpayable",
      "type": "function"
    },
    {
      "inputs": [
        {
          "internalType": "address",
          "name": "operator",
          "type": "address"
        },
        {
          "internalType": "bool",
          "name": "approved",
          "type": "bool"
        }
      ],
      "name": "setApprovalForAll",
      "outputs": [],
      "stateMutability": "nonpayable",
      "type": "function"
    },
    {
      "inputs": [],
      "name": "startDate",
      "outputs": [
        {
          "internalType": "uint256",
          "name": "",
          "type": "uint256"
        }
      ],
      "stateMutability": "view",
      "type": "function"
    },
    {
      "inputs": [
        {
          "internalType": "bytes4",
          "name": "interfaceId",
          "type": "bytes4"
        }
      ],
      "name": "supportsInterface",
      "outputs": [
        {
          "internalType": "bool",
          "name": "",
          "type": "bool"
        }
      ],
      "stateMutability": "view",
      "type": "function"
    },
    {
      "inputs": [],
      "name": "symbol",
      "outputs": [
        {
          "internalType": "string",
          "name": "",
          "type": "string"
        }
      ],
      "stateMutability": "view",
      "type": "function"
    },
    {
      "inputs": [
        {
          "internalType": "uint256",
          "name": "tokenId",
          "type": "uint256"
        }
      ],
      "name": "tokenURI",
      "outputs": [
        {
          "internalType": "string",
          "name": "",
          "type": "string"
        }
      ],
      "stateMutability": "view",
      "type": "function"
    },
    {
      "inputs": [
        {
          "internalType": "address",
          "name": "from",
          "type": "address"
        },
        {
          "internalType": "address",
          "name": "to",
          "type": "address"
        },
        {
          "internalType": "uint256",
          "name": "tokenId",
          "type": "uint256"
        }
      ],
      "name": "transferFrom",
      "outputs": [],
      "stateMutability": "nonpayable",
      "type": "function"
    }
  ],
  "bytecode": {
    "object": "0x60806040523480156200001157600080fd5b5060405162001b7d38038062001b7d8339810160408190526200003491620001dc565b6040518060400160405280600781526020016610995b9e93919560ca1b8152506040518060400160405280600381526020016213919560ea1b8152508160009081620000819190620003c1565b506001620000908282620003c1565b505050600783905560088290558051620000b290600b906020840190620000bc565b505050506200048d565b82805482825590600052602060002090810192821562000107579160200282015b82811115620001075782518290620000f69082620003c1565b5091602001919060010190620000dd565b506200011592915062000119565b5090565b80821115620001155760006200013082826200013a565b5060010162000119565b508054620001489062000332565b6000825580601f1062000159575050565b601f0160209004906000526020600020908101906200017991906200017c565b50565b5b808211156200011557600081556001016200017d565b634e487b7160e01b600052604160045260246000fd5b604051601f8201601f191681016001600160401b0381118282101715620001d457620001d462000193565b604052919050565b600080600060608486031215620001f257600080fd5b83519250602080850151925060408086015160018060401b03808211156200021957600080fd5b818801915088601f8301126200022e57600080fd5b81518181111562000243576200024362000193565b8060051b62000254868201620001a9565b918252838101860191868101908c8411156200026f57600080fd5b87860192505b8383101562000320578251858111156200028f5760008081fd5b8601603f81018e13620002a25760008081fd5b8881015186811115620002b957620002b962000193565b620002cd601f8201601f19168b01620001a9565b8181528f8a838501011115620002e35760008081fd5b60005b8281101562000303578381018b01518282018d01528b01620002e6565b5060009181018b0191909152835250918701919087019062000275565b80985050505050505050509250925092565b600181811c908216806200034757607f821691505b6020821081036200036857634e487b7160e01b600052602260045260246000fd5b50919050565b601f821115620003bc57600081815260208120601f850160051c81016020861015620003975750805b601f850160051c820191505b81811015620003b857828155600101620003a3565b5050505b505050565b81516001600160401b03811115620003dd57620003dd62000193565b620003f581620003ee845462000332565b846200036e565b602080601f8311600181146200042d5760008415620004145750858301515b600019600386901b1c1916600185901b178555620003b8565b600085815260208120601f198616915b828110156200045e578886015182559484019460019091019084016200043d565b50858210156200047d5787850151600019600388901b60f8161c191681555b5050505050600190811b01905550565b6116e0806200049d6000396000f3fe608060405234801561001057600080fd5b50600436106101215760003560e01c80636352211e116100ad578063aa91e46c11610071578063aa91e46c14610244578063b88d4fde14610257578063c24a0f8b1461026a578063c87b56dd14610273578063e985e9c51461028657600080fd5b80636352211e146101f057806370a082311461020357806395d89b4114610216578063a22cb4651461021e578063aa271e1a1461023157600080fd5b80630b97bc86116100f45780630b97bc86146101a357806314f710fe146101ba57806323b872dd146101c257806342842e0e146101d557806357d945c9146101e857600080fd5b806301ffc9a71461012657806306fdde031461014e578063081812fc14610163578063095ea7b31461018e575b600080fd5b61013961013436600461113b565b610299565b60405190151581526020015b60405180910390f35b6101566102c4565b60405161014591906111a8565b6101766101713660046111bb565b610356565b6040516001600160a01b039091168152602001610145565b6101a161019c3660046111eb565b61037f565b005b6101ac60075481565b604051908152602001610145565b6101ac61038e565b6101a16101d0366004611215565b6105bd565b6101a16101e3366004611215565b610648565b610156610668565b6101766101fe3660046111bb565b610686565b6101ac610211366004611251565b610691565b6101566106d9565b6101a161022c36600461126c565b6106e8565b61013961023f366004611251565b6106f3565b610156610252366004611251565b610736565b6101a16102653660046112be565b6107e2565b6101ac60085481565b6101566102813660046111bb565b6107f9565b61013961029436600461139a565b61090a565b60006001600160e01b03198216632483248360e11b14806102be57506102be82610938565b92915050565b6060600080546102d3906113cd565b80601f01602080910402602001604051908101604052809291908181526020018280546102ff906113cd565b801561034c5780601f106103215761010080835404028352916020019161034c565b820191906000526020600020905b81548152906001019060200180831161032f57829003601f168201915b5050505050905090565b600061036182610988565b506000828152600460205260409020546001600160a01b03166102be565b61038a8282336109c1565b5050565b600754600090339042108015906103a757506008544211155b6103f85760405162461bcd60e51b815260206004820152601f60248201527f69742773206e6f74207468652072696768742074696d6520746f206d696e740060448201526064015b60405180910390fd5b610401816106f3565b6104465760405162461bcd60e51b8152602060048201526016602482015275796f752063616e206e6f74206d696e7420747769636560501b60448201526064016103ef565b60095460051161048f5760405162461bcd60e51b81526020600482015260146024820152736f6e6c792063616e206d696e742035204e46547360601b60448201526064016103ef565b61049d600980546001019055565b60006104a860095490565b90506104b482826109ce565b61056d81600b6104c5600183611407565b815481106104d5576104d5611428565b9060005260206000200180546104ea906113cd565b80601f0160208091040260200160405190810160405280929190818152602001828054610516906113cd565b80156105635780601f1061053857610100808354040283529160200191610563565b820191906000526020600020905b81548152906001019060200180831161054657829003601f168201915b50505050506109e8565b600b61057a600183611407565b8154811061058a5761058a611428565b600091825260208083206001600160a01b0386168452600a9091526040909220916105b691018261148c565b5092915050565b6001600160a01b0382166105e757604051633250574960e11b8152600060048201526024016103ef565b60006105f4838333610a38565b9050836001600160a01b0316816001600160a01b031614610642576040516364283d7b60e01b81526001600160a01b03808616600483015260248201849052821660448201526064016103ef565b50505050565b610663838383604051806020016040528060008152506107e2565b505050565b336000908152600a602052604090208054606091906102d3906113cd565b60006102be82610988565b60006001600160a01b0382166106bd576040516322718ad960e21b8152600060048201526024016103ef565b506001600160a01b031660009081526003602052604090205490565b6060600180546102d3906113cd565b61038a338383610b31565b6001600160a01b0381166000908152600a602052604081208054829190610719906113cd565b9050111561072957506000919050565b506001919050565b919050565b6001600160a01b0381166000908152600a6020526040902080546060919061075d906113cd565b80601f0160208091040260200160405190810160405280929190818152602001828054610789906113cd565b80156107d65780601f106107ab576101008083540402835291602001916107d6565b820191906000526020600020905b8154815290600101906020018083116107b957829003601f168201915b50505050509050919050565b6107ed8484846105bd565b61064284848484610bd0565b606061080482610988565b506000828152600660205260408120805461081e906113cd565b80601f016020809104026020016040519081016040528092919081815260200182805461084a906113cd565b80156108975780601f1061086c57610100808354040283529160200191610897565b820191906000526020600020905b81548152906001019060200180831161087a57829003601f168201915b5050505050905060006108b560408051602081019091526000815290565b905080516000036108c7575092915050565b8151156108f95780826040516020016108e1929190611569565b60405160208183030381529060405292505050919050565b61090284610cf9565b949350505050565b6001600160a01b03918216600090815260056020908152604080832093909416825291909152205460ff1690565b60006001600160e01b031982166380ac58cd60e01b148061096957506001600160e01b03198216635b5e139f60e01b145b806102be57506301ffc9a760e01b6001600160e01b03198316146102be565b6000818152600260205260408120546001600160a01b0316806102be57604051637e27328960e01b8152600481018490526024016103ef565b6106638383836001610d6e565b61038a828260405180602001604052806000815250610e74565b6000828152600660205260409020610a008282611598565b506040518281527ff8e1a15aba9398e019f0b49df1a4fde98ee17ae345cb5f6b5e2c27f5033e8ce79060200160405180910390a15050565b6000828152600260205260408120546001600160a01b0390811690831615610a6557610a65818486610e8b565b6001600160a01b03811615610aa357610a82600085600080610d6e565b6001600160a01b038116600090815260036020526040902080546000190190555b6001600160a01b03851615610ad2576001600160a01b0385166000908152600360205260409020805460010190555b60008481526002602052604080822080546001600160a01b0319166001600160a01b0389811691821790925591518793918516917fddf252ad1be2c89b69c2b068fc378daa952ba7f163c4a11628f55a4df523b3ef91a4949350505050565b6001600160a01b038216610b6357604051630b61174360e31b81526001600160a01b03831660048201526024016103ef565b6001600160a01b03838116600081815260056020908152604080832094871680845294825291829020805460ff191686151590811790915591519182527f17307eab39ab6107e8899845ad3d59bd9653f200f220920489ca2b5937696c31910160405180910390a3505050565b6001600160a01b0383163b1561064257604051630a85bd0160e11b81526001600160a01b0384169063150b7a0290610c12903390889087908790600401611650565b6020604051808303816000875af1925050508015610c4d575060408051601f3d908101601f19168201909252610c4a9181019061168d565b60015b610cb6573d808015610c7b576040519150601f19603f3d011682016040523d82523d6000602084013e610c80565b606091505b508051600003610cae57604051633250574960e11b81526001600160a01b03851660048201526024016103ef565b805181602001fd5b6001600160e01b03198116630a85bd0160e11b14610cf257604051633250574960e11b81526001600160a01b03851660048201526024016103ef565b5050505050565b6060610d0482610988565b506000610d1c60408051602081019091526000815290565b90506000815111610d3c5760405180602001604052806000815250610d67565b80610d4684610eef565b604051602001610d57929190611569565b6040516020818303038152906040525b9392505050565b8080610d8257506001600160a01b03821615155b15610e44576000610d9284610988565b90506001600160a01b03831615801590610dbe5750826001600160a01b0316816001600160a01b031614155b8015610dd15750610dcf818461090a565b155b15610dfa5760405163a9fbf51f60e01b81526001600160a01b03841660048201526024016103ef565b8115610e425783856001600160a01b0316826001600160a01b03167f8c5be1e5ebec7d5bd14f71427d1e84f3dd0314c0f7b2291e5b200ac8c7c3b92560405160405180910390a45b505b5050600090815260046020526040902080546001600160a01b0319166001600160a01b0392909216919091179055565b610e7e8383610f82565b6106636000848484610bd0565b610e96838383610fe7565b610663576001600160a01b038316610ec457604051637e27328960e01b8152600481018290526024016103ef565b60405163177e802f60e01b81526001600160a01b0383166004820152602481018290526044016103ef565b60606000610efc8361104a565b600101905060008167ffffffffffffffff811115610f1c57610f1c6112a8565b6040519080825280601f01601f191660200182016040528015610f46576020820181803683370190505b5090508181016020015b600019016f181899199a1a9b1b9c1cb0b131b232b360811b600a86061a8153600a8504945084610f5057509392505050565b6001600160a01b038216610fac57604051633250574960e11b8152600060048201526024016103ef565b6000610fba83836000610a38565b90506001600160a01b03811615610663576040516339e3563760e11b8152600060048201526024016103ef565b60006001600160a01b038316158015906109025750826001600160a01b0316846001600160a01b031614806110215750611021848461090a565b806109025750506000908152600460205260409020546001600160a01b03908116911614919050565b60008072184f03e93ff9f4daa797ed6e38ed64bf6a1f0160401b83106110895772184f03e93ff9f4daa797ed6e38ed64bf6a1f0160401b830492506040015b6d04ee2d6d415b85acef810000000083106110b5576d04ee2d6d415b85acef8100000000830492506020015b662386f26fc1000083106110d357662386f26fc10000830492506010015b6305f5e10083106110eb576305f5e100830492506008015b61271083106110ff57612710830492506004015b60648310611111576064830492506002015b600a83106102be5760010192915050565b6001600160e01b03198116811461113857600080fd5b50565b60006020828403121561114d57600080fd5b8135610d6781611122565b60005b8381101561117357818101518382015260200161115b565b50506000910152565b60008151808452611194816020860160208601611158565b601f01601f19169290920160200192915050565b602081526000610d67602083018461117c565b6000602082840312156111cd57600080fd5b5035919050565b80356001600160a01b038116811461073157600080fd5b600080604083850312156111fe57600080fd5b611207836111d4565b946020939093013593505050565b60008060006060848603121561122a57600080fd5b611233846111d4565b9250611241602085016111d4565b9150604084013590509250925092565b60006020828403121561126357600080fd5b610d67826111d4565b6000806040838503121561127f57600080fd5b611288836111d4565b91506020830135801515811461129d57600080fd5b809150509250929050565b634e487b7160e01b600052604160045260246000fd5b600080600080608085870312156112d457600080fd5b6112dd856111d4565b93506112eb602086016111d4565b925060408501359150606085013567ffffffffffffffff8082111561130f57600080fd5b818701915087601f83011261132357600080fd5b813581811115611335576113356112a8565b604051601f8201601f19908116603f0116810190838211818310171561135d5761135d6112a8565b816040528281528a602084870101111561137657600080fd5b82602086016020830137600060208483010152809550505050505092959194509250565b600080604083850312156113ad57600080fd5b6113b6836111d4565b91506113c4602084016111d4565b90509250929050565b600181811c908216806113e157607f821691505b60208210810361140157634e487b7160e01b600052602260045260246000fd5b50919050565b818103818111156102be57634e487b7160e01b600052601160045260246000fd5b634e487b7160e01b600052603260045260246000fd5b601f82111561066357600081815260208120601f850160051c810160208610156114655750805b601f850160051c820191505b8181101561148457828155600101611471565b505050505050565b818103611497575050565b6114a182546113cd565b67ffffffffffffffff8111156114b9576114b96112a8565b6114cd816114c784546113cd565b8461143e565b6000601f82116001811461150157600083156114e95750848201545b600019600385901b1c1916600184901b178455610cf2565b600085815260209020601f19841690600086815260209020845b8381101561153b578286015482556001958601959091019060200161151b565b50858310156115595781850154600019600388901b60f8161c191681555b5050505050600190811b01905550565b6000835161157b818460208801611158565b83519083019061158f818360208801611158565b01949350505050565b815167ffffffffffffffff8111156115b2576115b26112a8565b6115c0816114c784546113cd565b602080601f8311600181146115f557600084156115dd5750858301515b600019600386901b1c1916600185901b178555611484565b600085815260208120601f198616915b8281101561162457888601518255948401946001909101908401611605565b508582101561155957939096015160001960f8600387901b161c19169092555050600190811b01905550565b6001600160a01b03858116825284166020820152604081018390526080606082018190526000906116839083018461117c565b9695505050505050565b60006020828403121561169f57600080fd5b8151610d678161112256fea264697066735822122011e350782b1646240627d5809a75b5c4448e7fbbd2463e7e257ed55bfc9dd9f864736f6c63430008140033",
    "linkReferences": {}
  },
  "methodIdentifiers": {
    "approve(address,uint256)": "095ea7b3",
    "balanceOf(address)": "70a08231",
    "endDate()": "c24a0f8b",
    "getApproved(uint256)": "081812fc",
    "getReceipt()": "57d945c9",
    "isApprovedForAll(address,address)": "e985e9c5",
    "isMinter(address)": "aa271e1a",
    "mintNFT()": "14f710fe",
    "name()": "06fdde03",
    "ownerOf(uint256)": "6352211e",
    "queryReceipt(address)": "aa91e46c",
    "safeTransferFrom(address,address,uint256)": "42842e0e",
    "safeTransferFrom(address,address,uint256,bytes)": "b88d4fde",
    "setApprovalForAll(address,bool)": "a22cb465",
    "startDate()": "0b97bc86",
    "supportsInterface(bytes4)": "01ffc9a7",
    "symbol()": "95d89b41",
    "tokenURI(uint256)": "c87b56dd",
    "transferFrom(address,address,uint256)": "23b872dd"
  },
  "id": 36
}